:020000040800F2
:1000000000000120D95B0008FD5A00080B5B0008C6
:10001000115B0008175B00081D5B00080000000072
:10002000000000000000000000000000113E000879
:10003000235B000800000000214000088940000800
:10004000295C0008295C0008295C0008295C00087C
:10005000295C0008295C0008295C0008295C00086C
:10006000295C0008295C0008295C0008295C00085C
:10007000295C0008295C0008295C0008295C00084C
:10008000295C0008295C0008295C0008295C00083C
:10009000295C0008295C0008295C0008295C00082C
:1000A000295C0008315B0008295C0008295C000815
:1000B000295C0008295C0008295C0008295C00080C
:1000C000295C0008295C0008295C0008295C0008FC
:1000D000295C0008295C0008295C0008295C0008EC
:1000E000295C0008295C0008295C0008295C0008DC
:1000F000295C0008295C0008295C0008295C0008CC
:10010000295C00080000000000000000295C0008D5
:10011000295C0008295C0008295C0008295C0008AB
:10012000295C0008295C0008295C0008295C00089B
:10013000295C0008295C00080000000000000000A5
:10014000295C0008295C0008295C00080000000008
:10015000000000000000000000000000000000009F
:10016000295C0008295C0008295C0008295C00085B
:10017000295C0008295C0008295C0008295C00084B
:10018000295C0008295C0008000000000000000055
:04019000295C0008DE
:1001A00010B5054C237833B9044B13B10448AFF3B1
:1001B00000800123237010BD140000200000000007
:1001C000845C000808B5034B1BB103490348AFF337
:1001D000008008BD0000000018000020845C0008BA
:1001E00080B500AF084A084B1B6843F0100313604A
:1001F000032001F084F9002005F02AFC05F04CFBF7
:100200000023184680BD00BF0020024080B400AF2C
:10021000064B1B781A46064B1B681344044A1360AE
:1002200000BFBD465DF8047B704700BF00000020A2
:10023000E019002080B400AF034B1B681846BD4690
:100240005DF8047B704700BFE019002080B59CB0CA
:1002500000AF7860002387F86F300023BB6600236F
:10026000FB607B68002B01D10123E2E17B681B6905
:10027000002B7B685B6C03F01003002B76D17B684E
:100280005B6C002B52D17B6800229A647B68002251
:100290001A657B680022DA647B68002283F84020BC
:1002A000786805F021FB7B681B689B6803F080532E
:1002B000002B3BD1786801F01BF8034687F86F30BC
:1002C0007B685B6C03F01003002B2FD197F86F3025
:1002D000002B2BD17B685B6C23F4885323F0020343
:1002E00043F002027B685A647B681B687A68126874
:1002F000926822F040529A607B681B687A681268A4
:10030000926842F080529A60924B1B68924AA2FB1C
:1003100003239A0C13469B0013445B00FB6002E02E
:10032000FB68013BFB60FB68002BF9D17B681B6815
:100330009B6803F08053002B07D07B681B689B6889
:1003400003F00053B3F1005F10D17B685B6C23F0C6
:10035000120343F010027B685A647B689B6C43F085
:1003600001027B689A64012387F86F307B685B6CBD
:1003700003F01003002B40F04F8197F86F30002BF3
:1003800040F04A817B681B689B6803F00403002BE4
:1003900040F042817B685B6C23F4817343F002027E
:1003A0007B685A647B681B68B3F1A04F04D07B68FC
:1003B0001B686A4A934201D1694B00E0694B7B6636
:1003C0007B681B68B3F1A04F02D1644B3B611AE01C
:1003D0007B681B68614A934203D14FF0A0433B61A5
:1003E00011E07B681B68604A934202D15F4B3B611E
:1003F00009E07B681B685D4A934202D15A4B3B611E
:1004000001E000233B617B681B689B6803F00303EA
:10041000012B08D17B681B681B6803F00103012BCB
:1004200001D1012300E00023002B1CD13B69002BEC
:1004300010D03B699B6803F00303012B07D13B6994
:100440001B6803F00103012B01D1012300E000230D
:10045000002B08D17B6E9B6823F440327B685B687D
:100460001A437B6E9A607B68DB695A037B689B6BDF
:10047000012B02D04FF4805300E000231A437B6825
:10048000DB681A437B689B681343BA6E1343BB66F1
:100490007B685B6A012B1BD17B68DB69002B09D170
:1004A0007B689B6A013B5A04BB6E134343F4803361
:1004B000BB660DE07B685B6C23F0220343F02002F7
:1004C0007B685A647B689B6C43F001027B689A648A
:1004D0007B68DB6A012B55D07B681B68224A9342FC
:1004E00004D07B681B68214A934241D17B68DB6A58
:1004F000B3F5307F2AD07B68DB6AB3F5807F22D0EA
:100500007B68DB6AB3F5E07F1AD07B68DB6AB3F502
:100510008A5F12D07B68DB6AB3F5845F0AD07B68A0
:10052000DB6AB3F5865F02D07B68DB6A24E04FF4B8
:10053000C07321E04FF4A0731EE04FF470731BE012
:100540004FF4807318E04FF4307315E04FF4E0730C
:1005500012E000BF1000002083DE1B4300010050AA
:100560000003005000070050000400500005005038
:100570007B68DB6A23F480537A68126B1343BA6E8C
:100580001343BB667B681B689B6803F00C03002B5E
:1005900013D17B681A687B681B68DB6823F480438F
:1005A00023F00203D3607B689B699A037B685B6BD3
:1005B0005B001343BA6E1343BB667B681A687B68A3
:1005C0001B68D9681D4B0B40B96E0B43D3607B6829
:1005D0001B69012B0CD17B681B687A681268126B4F
:1005E00022F00F017A68126A013A0A431A6307E09F
:1005F0007B681B687A681268126B22F00F021A631C
:100600007B6800229A647B685B6C23F0030343F0F1
:1006100001027B685A640AE07B685B6C23F012037A
:1006200043F010027B685A64012387F86F3097F813
:100630006F3018467037BD4680BD00BF07C0F0FF61
:1006400080B584B000AF78600023FB737B681B68C3
:100650009B6803F00403002B40F0F9807B6893F85B
:100660004030012B01D10223F4E07B68012283F8A2
:100670004020786800F0DEFD0346FB73FB7B002B17
:1006800040F0E0807B685B6C23F4706323F001032F
:1006900043F480727B685A647B681B68B3F1A04F97
:1006A00004D07B681B686D4A934206D16C4B9B68F3
:1006B00003F01F03002B10D005E06A4B9B6803F08A
:1006C0001F03002B09D07B681B68B3F1A04F04D037
:1006D0007B681B68644A934215D17B685B6C23F48A
:1006E00080127B685A647B681B68DB6803F00073C8
:1006F000002B36D07B685B6C23F4405343F480526C
:100700007B685A642DE07B685B6C43F480127B68E5
:100710005A647B681B68B3F1A04F04D07B681B68E8
:100720004E4A93420AD14FF0A043DB6803F00073B6
:10073000002B14BF01230023DBB208E04A4BDB6827
:1007400003F00073002B14BF01230023DBB2002B46
:1007500007D07B685B6C23F4405343F480527B6882
:100760005A647B685B6C03F48053B3F5805F06D1F9
:100770007B689B6C23F006027B689A6402E07B68CE
:1007800000229A647B68002283F840207B681B6803
:100790001C221A607B681B68B3F1A04F04D07B68F1
:1007A0001B682E4A934206D12D4B9B6803F01F0312
:1007B000002B3ED005E02B4B9B6803F01F03002B62
:1007C00037D07B681B68B3F1A04F04D07B681B68EF
:1007D000224A934206D1224B9B6803F01F03052B4C
:1007E00027D005E01F4B9B6803F01F03052B20D08B
:1007F0007B681B68B3F1A04F04D07B681B68174A65
:10080000934206D1164B9B6803F01F03092B10D0AF
:1008100005E0144B9B6803F01F03092B09D07B688C
:100820001B68B3F1A04F04D07B681B680E4A93424B
:100830000FD17B681B687A681268926842F00402E4
:100840009A6006E07B68002283F8402001E00223E2
:10085000FB73FB7B18461037BD4680BD000100507E
:1008600000030050000700500004005080B586B01F
:1008700000AF7860396000233B617B685B69082BBF
:1008800002D108237B613AE07B681B68B3F1A04F7B
:1008900004D07B681B686E4A934201D16D4B00E027
:1008A0006D4BFB60FB689B6803F01F03002B12D1AC
:1008B0007B681B68DB6803F00103012B1DD17B689B
:1008C0005B6C43F020027B685A647B68002283F8EB
:1008D00040200123B8E0FB689B6803F44043002BF1
:1008E0000BD07B685B6C43F020027B685A647B68AA
:1008F000002283F840200123A6E00C237B617B6863
:100900001B68B3F1A04F04D07B681B68504A934228
:1009100006D1504B9B6803F01F03002B10D005E05D
:100920004D4B9B6803F01F03002B09D07B681B68AD
:10093000B3F1A04F04D07B681B68484A934204D1AE
:100940007B681B68DB683B610FE07B681B68B3F169
:10095000A04F04D07B681B683D4A934202D14FF000
:10096000A04300E03D4BDB683B61FFF763FCB860F0
:100970001AE03B68B3F1FF3F16D03B68002B07D06D
:10098000FFF758FC0246BB68D21A3B689A420BD963
:100990007B685B6C43F004027B685A647B680022CE
:1009A00083F8402003234FE07B681B681A687B694B
:1009B0001340002BDDD07B685B6C43F400727B68D6
:1009C0005A647B681B68DB6803F44063002B31D1F9
:1009D0003B6903F40053002B2CD17B681B681B6818
:1009E00003F00803082B25D17B681B689B6803F084
:1009F0000403002B12D17B685B6C23F480727B684C
:100A00005A647B685B6C03F48053002B12D17B68C3
:100A10005B6C43F001027B685A640BE07B685B6CA3
:100A200043F020027B685A647B689B6C43F00102B0
:100A30007B689A643B6903F48043002B03D17B6895
:100A40001B687A691A60002318461837BD4680BDB6
:100A50000001005000030050000700500004005047
:100A600080B483B000AF78607B681B681B6C18464D
:100A70000C37BD465DF8047B7047000090B49CB015
:100A800000AF78603960002387F86F300023FB6087
:100A90007B6893F84030012B01D10223CDE27B68C3
:100AA000012283F840207B681B689B6803F00403E5
:100AB000002B40F0B1823B685B68042B1CD87B683C
:100AC00019687B681B68186B3B685A6813465B00A3
:100AD00013445B001A461F239340DB4318403B68D6
:100AE0001C683B685A6813465B0013445B0004FAB9
:100AF00003F303430B6363E03B685B68092B1ED879
:100B00007B6819687B681B68586B3B685A6813469A
:100B10005B0013445B001E3B1F2202FA03F3DB431E
:100B200018403B681C683B685A6813465B001344D6
:100B30005B001E3B04FA03F303434B6340E03B6856
:100B40005B680E2B1ED87B6819687B681B68986BE6
:100B50003B685A6813465B0013445B003C3B1F2212
:100B600002FA03F3DB4318403B681C683B685A6891
:100B700013465B0013445B003C3B04FA03F303435E
:100B80008B631DE07B6819687B681B68D86B3B68CA
:100B90005A6813465B0013445B005A3B1F2202FA5B
:100BA00003F3DB4318403B681C683B685A681346F4
:100BB0005B0013445B005A3B04FA03F30343CB632B
:100BC0007B681B689B6803F00C03002B40F0E580FA
:100BD0003B681B68092B1CD97B6819687B681B68FC
:100BE00098693B681A6813465B0013441E3B072252
:100BF00002FA03F3DB4318403B689C683B681A68C1
:100C000013465B0013441E3B04FA03F303438B615A
:100C100019E07B6819687B681B6858693B681A682B
:100C200013465B001344072202FA03F3DB43184028
:100C30003B689C683B681A6813465B00134404FADF
:100C400003F303434B613B685A697B681B68DB68AD
:100C5000DB0803F003035B0002FA03F3BB663B68A7
:100C60001B69013B032B4FD801A252F823F000BFB0
:100C7000810C0008A30C0008C50C0008E70C000854
:100C80007B681A687B681B68196EA14B0B4039683A
:100C900009688806B96E01430B4343F000431366AD
:100CA0007BE07B681A687B681B68596E984B0B4029
:100CB000396809688806B96E01430B4343F0004365
:100CC00053666AE07B681A687B681B68996E904B74
:100CD0000B40396809688806B96E01430B4343F03D
:100CE0000043936659E07B681A687B681B68D96E7D
:100CF000874B0B40396809688806B96E01430B437E
:100D000043F00043D36648E07B681B681B6E03F02A
:100D1000F8423B681B689B069A4207D17B681B68B8
:100D20007A681268126E22F000421A667B681B68AD
:100D30005B6E03F0F8423B681B689B069A4207D142
:100D40007B681B687A681268526E22F000425A660D
:100D50007B681B689B6E03F0F8423B681B689B0630
:100D60009A4207D17B681B687A681268926E22F0FB
:100D700000429A667B681B68DB6E03F0F8423B68B2
:100D80001B689B069A4207D17B681B687A681268C9
:100D9000D26E22F00042DA6600BF7B681B689B6857
:100DA00003F00303012B08D17B681B681B6803F069
:100DB0000103012B01D1012300E00023002B40F0AF
:100DC00036813B68DB68012B0FD07B681B687A6833
:100DD0001268D2F8B0103A681268012000FA02F2E4
:100DE000D2430A40C3F8B0204AE07B681B687A68A7
:100DF0001268D2F8B0103A681268012000FA02F2C4
:100E00000A43C3F8B0203B681B68092B1CD97B68D8
:100E100019687B681B6898693B681A6813465B0011
:100E200013441B3B072202FA03F3DB4318403B68E1
:100E30009C683B681A6813465B0013441B3B04FA2A
:100E400003F303438B611BE07B6819687B681B68B5
:100E500058693B681B685A1C13465B001344072201
:100E600002FA03F3DB4318403B689C683B681B684D
:100E70005A1C13465B00134404FA03F303434B610B
:100E80007B681B68B3F1A04F04D07B681B68214AC4
:100E9000934201D1204B00E0204B7B663B681B68EE
:100EA000102B05D17B6E9B6803F40003002B15D03B
:100EB0003B681B68112B05D17B6E9B6803F0807328
:100EC000002B0BD03B681B68122B40F0B0807B6E70
:100ED0009B6803F48003002B40F0A9807B681B68AB
:100EE000B3F1A04F02D10B4B3B6127E07B681B683D
:100EF000084A934203D14FF0A0433B611EE07B6858
:100F00001B68074A93420FD1064B3B6116E000BFB6
:100F100000F0FF8300010050000300500007005064
:100F200000040050000500507B681B68454A93424E
:100F300002D1454B3B6101E000233B617B681B68AC
:100F40009B6803F00303012B08D17B681B681B68B7
:100F500003F00103012B01D1012300E00023002B4A
:100F600050D13B69002B10D03B699B6803F0030311
:100F7000012B07D13B691B6803F00103012B01D151
:100F8000012300E00023002B3CD13B681B68102BA1
:100F90001DD17B681B68B3F1A04F18D17B6E9B6895
:100FA00043F400027B6E9A60284B1B68284AA2FB20
:100FB00003239A0C13469B0013445B00FB6002E082
:100FC000FB68013BFB60FB68002BF9D12EE03B681E
:100FD0001B68112B0BD17B681B68B3F1A04F06D1A6
:100FE0007B6E9B6843F080727B6E9A601EE03B686C
:100FF0001B68122B1AD17B6E9B6843F480027B6EB8
:101000009A6013E07B685B6C43F020027B685A6453
:10101000012387F86F300AE07B685B6C43F02002A5
:101020007B685A64012387F86F3000E000BF7B685B
:10103000002283F8402097F86F3018467037BD467D
:1010400090BC7047000500500004005010000020C4
:1010500083DE1B4380B49BB000AF7860396000230F
:1010600087F867307B681B68B3F1A04F02D16C4BE7
:10107000FB601AE07B681B68694A934203D14FF01A
:10108000A043FB6011E07B681B68664A934202D173
:10109000654BFB6009E07B681B68634A934202D1A1
:1010A000604BFB6001E00023FB60FB68002B01D17B
:1010B0000123AFE07B6893F84030012B01D102237C
:1010C000A8E07B68012283F840207B681B689B684E
:1010D00003F00403002B40F08C80FB689B6803F056
:1010E0000403002B40F085807B681B68B3F1A04FA0
:1010F00004D07B681B684A4A934201D14B4B00E005
:101100004B4B3B663B681B68002B3FD03B6E9B689C
:1011100023F460423B6859687B685B6B5B030B435D
:101120001A433B6E9A607B681B689B6803F003035D
:10113000012B08D17B681B681B6803F00103012B9E
:1011400001D1012300E00023002B5CD1FB689B68E8
:1011500003F00303012B07D1FB681B6803F00103B5
:10116000012B01D1012300E00023002B4BD13B6E6A
:101170009B6823F4716323F00F033A6811683A689F
:1011800092680A431A433B6E9A603CE03B6E9B6850
:1011900023F460423B6E9A607B681B689B6803F097
:1011A0000303012B08D17B681B681B6803F0010354
:1011B000012B01D1012300E00023002B23D1FB6888
:1011C0009B6803F00303012B07D1FB681B6803F046
:1011D0000103012B01D1012300E00023002B12D1D8
:1011E0003B6E9B6823F4716323F00F033A6E9360A8
:1011F00009E07B685B6C43F020027B685A64012342
:1012000087F8673000E000BF7B68002283F8402049
:1012100097F8673018466C37BD465DF8047B704719
:101220000001005000040050000500500003005071
:101230000007005080B584B000AF78600023FB60E9
:101240007B681B689B6803F00303012B08D17B6854
:101250001B681B6803F00103012B01D1012300E08F
:101260000023002B3CD17B681B689A681F4B1340FE
:10127000002B0DD07B685B6C43F010027B685A64D6
:101280007B689B6C43F001027B689A64012328E031
:101290007B681B687A681268926842F001029A6063
:1012A000FEF7C8FFF86014E0FEF7C4FF0246FB68D3
:1012B000D31A022B0DD97B685B6C43F010027B685C
:1012C0005A647B689B6C43F001027B689A6401233B
:1012D00007E07B681B681B6803F00103012BE3D167
:1012E000002318461037BD4680BD00BF3F00008078
:1012F00080B584B000AF78600023FB607B681B681A
:101300009B6803F00303012B08D17B681B681B68F3
:1013100003F00103012B01D1012300E00023002B86
:1013200040D07B681B689B6803F00D03012B0FD135
:101330007B681B687A681268926842F002029A60C1
:101340007B681B6803221A60FEF774FFF86022E0D6
:101350007B685B6C43F010027B685A647B689B6C13
:1013600043F001027B689A6401231CE0FEF762FFF0
:101370000246FB68D31A022B0DD97B685B6C43F0E5
:1013800010027B685A647B689B6C43F001027B68A7
:101390009A64012307E07B681B689B6803F00103E4
:1013A000012BE3D0002318461037BD4680BD000056
:1013B00080B485B000AF78607B6803F00703FB6002
:1013C0000C4BDB68BB60BA684FF6FF031340BB6091
:1013D000FB681A02BB68134343F0BF6343F4003356
:1013E000BB60044ABB68D36000BF1437BD465DF8DC
:1013F000047B704700ED00E080B400AF044BDB6875
:101400001B0A03F007031846BD465DF8047B7047CE
:1014100000ED00E080B483B000AF0346FB710949E2
:1014200097F907305B09FA7902F01F02012000FAF0
:1014300002F241F8232000BF0C37BD465DF8047B63
:10144000704700BF00E100E080B483B000AF034606
:101450003960FB7197F90730002B0BDA0D49FB79E6
:1014600003F00F03043B3A68D2B21201D2B20B442C
:101470001A7609E0084997F907303A68D2B21201A2
:10148000D2B20B4483F8002300BF0C37BD465DF891
:10149000047B704700ED00E000E100E080B489B01B
:1014A00000AFF860B9607A60FB6803F00703FB6186
:1014B000FB69C3F10703042B28BF0423BB61FB694D
:1014C0000433062B02D9FB69033B00E000237B6158
:1014D0000122BB6902FA03F35A1EBB681A407B69FA
:1014E0009A4001217B6901FA03F3591E7B680B4086
:1014F000134318462437BD465DF8047B704780B51A
:1015000082B000AF78607868FFF752FF00BF0837FD
:10151000BD4680BD80B586B000AF0346B9607A6035
:10152000FB7300237B61FFF767FF78617A68B96816
:101530007869FFF7B3FF024697F90F301146184656
:10154000FFF782FF00BF1837BD4680BD80B582B06F
:1015500000AF0346FB7197F907301846FFF75AFFB3
:1015600000BF0837BD4680BD80B487B000AF78604B
:10157000396000237B610023FB6000233B6160E155
:101580003B681A6801217B6901FA03F31340FB6091
:10159000FB68002B00F052813B685B68022B03D094
:1015A0003B685B68122B23D17B69DA087B680832C1
:1015B00053F822303B617B6903F007039B000F2245
:1015C00002FA03F3DB433A6913403B613B681A6953
:1015D0007B6903F007039B0002FA03F33A691343A4
:1015E0003B617B69DA087B680832396943F822106D
:1015F0007B681B683B617B695B00032202FA03F393
:10160000DB433A6913403B613B685B6803F00302CC
:101610007B695B0002FA03F33A6913433B617B6821
:101620003A691A603B685B68012B0BD03B685B68CA
:10163000022B07D03B685B68112B03D03B685B68CB
:10164000122B30D17B689B683B617B695B00032276
:1016500002FA03F3DB433A6913403B613B68DA6803
:101660007B695B0002FA03F33A6913433B617B68D1
:101670003A699A607B685B683B6101227B6902FA88
:1016800003F3DB433A6913403B613B685B681B092A
:1016900003F001027B6902FA03F33A6913433B61E9
:1016A0007B683A695A607B68DB683B617B695B00F9
:1016B000032202FA03F3DB433A6913403B613B68C0
:1016C0009A687B695B0002FA03F33A6913433B6152
:1016D0007B683A69DA603B685B6803F08053002BF3
:1016E00000F0AC805E4A5E4B9B6943F0010393615E
:1016F0005B4B9B6903F00103BB60BB68594A7B6984
:101700009B08023352F823303B617B6903F00303EB
:101710009B000F2202FA03F3DB433A6913403B615B
:101720007B68B3F1904F25D07B684F4A93421FD01E
:101730007B684E4A934219D07B684D4A934213D03E
:101740007B684C4A93420DD07B684B4A934207D04A
:101750007B684A4A934201D106230CE007230AE042
:10176000052308E0042306E0032304E0022302E04B
:10177000012300E000237A6902F003029200934003
:101780003A6913433B6137497B699B0802333A69E5
:1017900041F823203A4B1B683B61FB68DB433A6905
:1017A00013403B613B685B6803F48033002B03D03C
:1017B0003A69FB6813433B61314A3B691360304B24
:1017C0005B683B61FB68DB433A6913403B613B6804
:1017D0005B6803F40033002B03D03A69FB681343C2
:1017E0003B61274A3B695360254B9B683B61FB6823
:1017F000DB433A6913403B613B685B6803F4801349
:10180000002B03D03A69FB6813433B611C4A3B69D8
:1018100093601B4BDB683B61FB68DB433A69134019
:101820003B613B685B6803F40013002B03D03A690B
:10183000FB6813433B61124A3B69D3607B69013308
:101840007B613B681A687B6922FA03F3002B7FF403
:1018500097AE00BF1C37BD465DF8047B704700BFE4
:101860000010024000000140000400480008004849
:10187000000C004800100048001400480018004800
:101880000004014080B483B000AF78600B467B80D9
:1018900013467B707B78002B03D07A887B689A6133
:1018A00002E07A887B689A6200BF0C37BD465DF81B
:1018B000047B704780B5ADF5007D00AF3B1D18601F
:1018C0003B1D1B68002B02D1012300F0DABE3B1D3B
:1018D0001B681B6803F00103002B00F06481B04B10
:1018E0005B6803F00C03042B0CD0AD4B5B6803F07A
:1018F0000C03082B5AD1AA4B5B6803F4C033B3F531
:10190000803F53D14FF40033C7F8F431D7F8F431A6
:1019100093FAA3F3C7F8F031D7F8F031B3FA83F3B1
:10192000DBB25B09DBB243F00103DBB2012B02D176
:101930009B4B1B6815E04FF40033C7F8EC31D7F828
:10194000EC3193FAA3F3C7F8E8314FF40033C7F84A
:10195000E431D7F8E43193FAA3F3C7F8E031904BC0
:101960005B6A4FF40032C7F8DC21D7F8DC2192FA29
:10197000A2F2C7F8D821D7F8D821B2FA82F252B22F
:1019800042F0200252B2D2B202F01F02012101FA4B
:1019900002F21340002B00F005813B1D1B685B68C1
:1019A000002B40F0FF80012300F06BBE3B1D1B6845
:1019B0005B68B3F5803F06D1794A794B1B6843F4E5
:1019C0008033136030E03B1D1B685B68002B0CD13B
:1019D000734A734B1B6823F480331360704A704B57
:1019E0001B6823F4802313601EE03B1D1B685B68AB
:1019F000B3F5A02F0CD16A4A694B1B6843F48023CE
:101A00001360674A664B1B6843F4803313600BE036
:101A1000634A634B1B6823F480331360604A604B56
:101A20001B6823F4802313603B1D1B685B68002B3D
:101A30005AD0FEF7FFFBC7F8F8010AE0FEF7FAFB01
:101A40000246D7F8F831D31A642B02D9032300F0E9
:101A500018BE4FF40033C7F8D431D7F8D43193FA15
:101A6000A3F3C7F8D031D7F8D031B3FA83F3DBB2A0
:101A70005B09DBB243F00103DBB2012B02D1484B1F
:101A80001B6815E04FF40033C7F8CC31D7F8CC31E0
:101A900093FAA3F3C7F8C8314FF40033C7F8C43141
:101AA000D7F8C43193FAA3F3C7F8C0313C4B5B6A53
:101AB0004FF40032C7F8BC21D7F8BC2192FAA2F249
:101AC000C7F8B821D7F8B821B2FA82F252B242F080
:101AD000200252B2D2B202F01F02012101FA02F238
:101AE0001340002BAAD05EE0FEF7A4FBC7F8F80174
:101AF0000AE0FEF79FFB0246D7F8F831D31A642BB1
:101B000002D9032300F0BDBD4FF40033C7F8B43150
:101B1000D7F8B43193FAA3F3C7F8B031D7F8B0319E
:101B2000B3FA83F3DBB25B09DBB243F00103DBB250
:101B3000012B02D11A4B1B6815E04FF40033C7F894
:101B4000AC31D7F8AC3193FAA3F3C7F8A8314FF40E
:101B50000033C7F8A431D7F8A43193FAA3F3C7F838
:101B6000A0310F4B5B6A4FF40032C7F89C21D7F8C5
:101B70009C2192FAA2F2C7F89821D7F89821B2FADC
:101B800082F252B242F0200252B2D2B202F01F02EE
:101B9000012101FA02F21340002BAAD103E000BF99
:101BA0000010024000BF3B1D1B681B6803F00203CE
:101BB000002B00F07181D04B5B6803F00C03002B0D
:101BC0000CD0CD4B5B6803F00C03082B6ED1CA4BD5
:101BD0005B6803F4C033B3F5004F67D10223C7F845
:101BE0009431D7F8943193FAA3F3C7F89031D7F82A
:101BF0009031B3FA83F3DBB25B09DBB243F001034C
:101C0000DBB2012B02D1BC4B1B6813E00223C7F8E7
:101C10008C31D7F88C3193FAA3F3C7F888310223BB
:101C2000C7F88431D7F8843193FAA3F3C7F8803129
:101C3000B14B5B6A0222C7F87C21D7F87C2192FA6B
:101C4000A2F2C7F87821D7F87821B2FA82F252B21C
:101C500042F0200252B2D2B202F01F02012101FA78
:101C600002F21340002B07D03B1D1B68DB68012BE1
:101C700002D0012300F005BD9F489F4B1B6823F055
:101C8000F8023B1D1B681969F823C7F87431D7F8AF
:101C9000743193FAA3F3C7F87031D7F87031B3FAFF
:101CA00083F301FA03F313430360F5E03B1D1B6864
:101CB000DB68002B00F085800123C7F86C31D7F872
:101CC0006C3193FAA3F3C7F86831D7F86831B3FAE7
:101CD00083F303F1845303F584139B001A46012315
:101CE0001360FEF7A7FAC7F8F8010AE0FEF7A2FAB8
:101CF0000246D7F8F831D31A022B02D9032300F099
:101D0000C0BC0223C7F86431D7F8643193FAA3F357
:101D1000C7F86031D7F86031B3FA83F3DBB25B09FF
:101D2000DBB243F00103DBB2012B02D1724B1B6823
:101D300013E00223C7F85C31D7F85C3193FAA3F3C0
:101D4000C7F858310223C7F85431D7F8543193FA01
:101D5000A3F3C7F85031684B5B6A0222C7F84C21E5
:101D6000D7F84C2192FAA2F2C7F84821D7F84821B7
:101D7000B2FA82F252B242F0200252B2D2B202F071
:101D80001F02012101FA02F21340002BAED05A4883
:101D9000594B1B6823F0F8023B1D1B681969F82397
:101DA000C7F84431D7F8443193FAA3F3C7F8403168
:101DB000D7F84031B3FA83F301FA03F31343036016
:101DC0006AE00123C7F83C31D7F83C3193FAA3F31A
:101DD000C7F83831D7F83831B3FA83F303F18453B5
:101DE00003F584139B001A4600231360FEF722FAC2
:101DF000C7F8F8010AE0FEF71DFA0246D7F8F831F5
:101E0000D31A022B02D9032300F03BBC0223C7F8EC
:101E10003431D7F8343193FAA3F3C7F83031D7F817
:101E20003031B3FA83F3DBB25B09DBB243F0010379
:101E3000DBB2012B02D1304B1B6813E00223C7F841
:101E40002C31D7F82C3193FAA3F3C7F828310223A9
:101E5000C7F82431D7F8243193FAA3F3C7F8203117
:101E6000254B5B6A0222C7F81C21D7F81C2192FA85
:101E7000A2F2C7F81821D7F81821B2FA82F252B2AA
:101E800042F0200252B2D2B202F01F02012101FA46
:101E900002F21340002BAED13B1D1B681B6803F000
:101EA0000803002B00F0D7803B1D1B685B69002BEB
:101EB00066D00123C7F81431D7F8143193FAA3F38D
:101EC000C7F81031D7F81031B3FA83F31A460B4B29
:101ED00013449B001A4601231360FEF7ABF9C7F8C1
:101EE000F8010DE0FEF7A6F90246D7F8F831D31A4B
:101EF000022B05D90323C4E3001002402081901077
:101F00000223C7F80C31D7F80C3193FAA3F3C7F8C2
:101F100008310223C7F80431D7F8043193FAA3F249
:101F200007F580731A6007F1FC0302221A6007F1BB
:101F3000FC031B6893FAA3F207F1F8031A60A54BA0
:101F40005A6A07F1F4030221196007F1F4031B68D0
:101F500093FAA3F107F1F003196007F1F0031B688E
:101F6000B3FA83F35BB243F060035BB2DBB203F01E
:101F70001F03012101FA03F31340002BB2D06AE0E2
:101F800007F1EC0301221A6007F1EC031B6893FAD6
:101F9000A3F207F1E8031A6007F1E8031B68B3FA3C
:101FA00083F31A468C4B13449B001A46002313609C
:101FB000FEF740F9C7F8F80109E0FEF73BF90246E1
:101FC000D7F8F831D31A022B01D9032359E307F1CB
:101FD000E40302221A6007F1E4031B6893FAA3F2F8
:101FE00007F1E0031A6007F1DC0302221A6007F12F
:101FF000DC031B6893FAA3F207F1D8031A6007F118
:10200000D40302221A6007F1D4031B6893FAA3F2E7
:1020100007F1D0031A606F4B5A6A07F1CC03022113
:10202000196007F1CC031B6893FAA3F107F1C80309
:10203000196007F1C8031B68B3FA83F35BB243F07E
:1020400060035BB2DBB203F01F03012101FA03F36B
:102050001340002BB1D13B1D1B681B6803F0040328
:10206000002B00F05981002387F8FF31594BDB69C1
:1020700003F08053002B12D1564A564BDB6943F0D4
:102080008053D361534BDB6903F0805207F10C039B
:102090001A6007F10C031B68012387F8FF314F4BCF
:1020A0001B6803F48073002B1AD14C4A4B4B1B68FE
:1020B00043F480731360FEF7BDF8C7F8F80109E038
:1020C000FEF7B8F80246D7F8F831D31A642B01D9D5
:1020D0000323D6E2414B1B6803F48073002BEFD03F
:1020E0003B1D1B689B68012B06D13A4A394B1B6A82
:1020F00043F0010313622FE03B1D1B689B68002B1C
:102100000CD1344A334B1B6A23F001031362314A6A
:10211000304B1B6A23F0040313621DE03B1D1B6858
:102120009B68052B0CD12B4A2A4B1B6A43F00403F6
:102130001362284A274B1B6A43F0010313620BE02A
:10214000244A244B1B6A23F001031362214A214BCA
:102150001B6A23F0040313623B1D1B689B68002B62
:102160006BD0FEF767F8C7F8F8010BE0FEF762F8EE
:102170000246D7F8F831D31A41F28832934201D996
:1021800003237EE207F1C40302221A6007F1C403AD
:102190001B6893FAA3F207F1C0031A6007F1BC03AE
:1021A00002221A6007F1BC031B6893FAA3F207F13D
:1021B000B8031A6007F1B8031B68B3FA83F3DBB204
:1021C0005B09DBB243F00203DBB2022B08D1014B07
:1021D0001B6A13E000100240208190100070004044
:1021E00007F1B40302221A6007F1B4031B6893FAE3
:1021F000A3F207F1B0031A60C04B5B6A07F1AC02AF
:102200000221116007F1AC02126892FAA2F107F103
:10221000A802116007F1A8021268B2FA82F252B263
:1022200042F0400252B2D2B202F01F02012101FA82
:1022300002F21340002B99D064E0FDF7FBFFC7F8D2
:10224000F8010BE0FDF7F6FF0246D7F8F831D31A94
:1022500041F28832934201D9032312E207F1A40329
:1022600002221A6007F1A4031B6893FAA3F207F194
:10227000A0031A6007F19C0302221A6007F19C0375
:102280001B6893FAA3F207F198031A6007F1980309
:102290001B68B3FA83F3DBB25B09DBB243F00203E2
:1022A000DBB2022B02D1954B1B6A0DE007F19403C0
:1022B00002221A6007F194031B6893FAA3F207F154
:1022C00090031A608D4B5B6A07F18C02022111604A
:1022D00007F18C02126892FAA2F107F188021160EC
:1022E00007F188021268B2FA82F252B242F040025A
:1022F00052B2D2B202F01F02012101FA02F21340DF
:10230000002B9FD197F8FF31012B05D17B4A7B4BE6
:10231000DB6923F08053D3613B1D1B689B69002B55
:1023200000F0AE81754B5B6803F00C03082B00F0E6
:10233000A5813B1D1B689B69022B40F01D8107F1A5
:1023400084034FF080721A6007F184031B6893FACC
:10235000A3F207F180031A6007F180031B68B3FA48
:1023600083F303F1845303F584139B001A4600237F
:102370001360FDF75FFFC7F8F80109E0FDF75AFFAA
:102380000246D7F8F831D31A022B01D9032378E19A
:1023900007F17C034FF000721A6007F17C031B68A1
:1023A00093FAA3F207F178031A6007F178031B6828
:1023B000B3FA83F3DBB25B09DBB243F00103DBB2B8
:1023C000012B02D14D4B1B681BE007F174034FF04A
:1023D00000721A6007F174031B6893FAA3F207F105
:1023E00070031A6007F16C034FF000721A6007F176
:1023F0006C031B6893FAA3F207F168031A603F4B62
:102400005B6A07F164024FF00071116007F164022A
:10241000126892FAA2F107F16002116007F16002FE
:102420001268B2FA82F252B242F0200252B2D2B232
:1024300002F01F02012101FA02F21340002B9DD18C
:102440002E492E4BDB6A23F00F023B1D1B685B6A93
:102450001343CB622948294B5B6823F476123B1D5A
:102460001B68196A3B1D1B68DB690B431343436000
:1024700007F15C034FF080721A6007F15C031B6880
:1024800093FAA3F207F158031A6007F158031B6887
:10249000B3FA83F303F1845303F584139B001A46C4
:1024A00001231360FDF7C6FEC7F8F80109E0FDF748
:1024B000C1FE0246D7F8F831D31A022B01D9032303
:1024C000DFE007F154034FF000721A6007F1540384
:1024D0001B6893FAA3F207F150031A6007F1500347
:1024E0001B68B3FA83F3DBB25B09DBB243F0010391
:1024F000DBB2012B04D1014B1B681DE00010024030
:1025000007F14C034FF000721A6007F14C031B688F
:1025100093FAA3F207F148031A6007F144034FF05E
:1025200000721A6007F144031B6893FAA3F207F1E3
:1025300040031A60554B5B6A07F13C024FF0007193
:10254000116007F13C02126892FAA2F107F1380219
:10255000116007F138021268B2FA82F252B242F008
:10256000200252B2D2B202F01F02012101FA02F29D
:102570001340002B9BD083E007F134034FF08072AF
:102580001A6007F134031B6893FAA3F207F13003D2
:102590001A6007F130031B68B3FA83F303F1845325
:1025A00003F584139B001A4600231360FDF742FED7
:1025B000C7F8F80109E0FDF73DFE0246D7F8F8310B
:1025C000D31A022B01D903235BE007F12C034FF050
:1025D00000721A6007F12C031B6893FAA3F207F14B
:1025E00028031A6007F128031B68B3FA83F3DBB2F0
:1025F0005B09DBB243F00103DBB2012B02D1234BB9
:102600001B681BE007F124034FF000721A6007F10A
:1026100024031B6893FAA3F207F120031A6007F161
:102620001C034FF000721A6007F11C031B6893FA39
:10263000A3F207F118031A60144B5B6A07F1140246
:102640004FF00071116007F11402126892FAA2F1C2
:1026500007F11002116007F110021268B2FA82F25B
:1026600052B242F0200252B2D2B202F01F02012155
:1026700001FA02F21340002B9DD101E0012300E09A
:102680000023184607F50077BD4680BD00100240C4
:1026900080B59EB000AF7860396000237B677B68AF
:1026A000002B01D1012364E1924B1B6803F0070268
:1026B0003B689A4210D28F498E4B1B6823F0070269
:1026C0003B6813430B608B4B1B6803F007023B68AE
:1026D0009A4201D001234CE17B681B6803F002039E
:1026E000002B08D08449844B5B6823F0F0027B68A0
:1026F0009B6813434B607B681B6803F00103002B4E
:1027000000F0DF807B685B68012B3DD14FF4003324
:102710003B673B6F93FAA3F3FB66FB6EB3FA83F35D
:10272000DBB25B09DBB243F00103DBB2012B02D168
:10273000714B1B680FE04FF40033BB66BB6E93FA1E
:10274000A3F37B664FF400333B663B6E93FAA3F32F
:10275000FB65694B5B6A4FF40032BA65BA6D92FA59
:10276000A2F27A657A6DB2FA82F252B242F0200297
:1027700052B2D2B202F01F02012101FA02F213405A
:10278000002B7DD10123F4E07B685B68022B3DD1F7
:102790004FF000733B653B6D93FAA3F3FB64FB6C56
:1027A000B3FA83F3DBB25B09DBB243F00103DBB2C4
:1027B000012B02D1504B1B680FE04FF00073BB643C
:1027C000BB6C93FAA3F37B644FF000733B643B6CE8
:1027D00093FAA3F3FB63484B5B6A4FF00072BA6352
:1027E000BA6B92FAA2F27A637A6BB2FA82F252B2BE
:1027F00042F0200252B2D2B202F01F02012101FACD
:1028000002F21340002B3BD10123B2E002233B63D1
:102810003B6B93FAA3F3FB62FB6AB3FA83F3DBB27D
:102820005B09DBB243F00103DBB2012B02D1324B77
:102830001B680DE00223BB62BB6A93FAA3F37B62C1
:1028400002233B623B6A93FAA3F3FB612A4B5B6A68
:102850000222BA61BA6992FAA2F27A617A69B2FA8C
:1028600082F252B242F0200252B2D2B202F01F0201
:10287000012101FA02F21340002B01D1012378E07B
:102880001D491D4B5B6823F003027B685B681343A3
:102890004B60FDF7CFFC78670AE0FDF7CBFC024602
:1028A0007B6FD31A41F28832934201D9032360E04F
:1028B000114B5B6803F00C027B685B689B009A42DB
:1028C000EBD10C4B1B6803F007023B689A4215D909
:1028D0000849084B1B6823F007023B6813430B6051
:1028E000044B1B6803F007023B689A4206D00123A1
:1028F0003FE000BF00200240001002407B681B68E0
:1029000003F00403002B08D01C491C4B5B6823F424
:10291000E0627B68DB6813434B607B681B6803F0F5
:102920000803002B09D01549144B5B6823F460524F
:102930007B681B69DB0013434B6000F025F8014600
:102940000E4B5B6803F0F002F0233B613B6993FAA6
:10295000A3F3FB60FB68B3FA83F322FA03F3084A9C
:10296000D35C21FA03F3074A1360002003F070F8E8
:10297000002318467837BD4680BD00BF00100240D6
:10298000A05D00081000002080B48BB000AF0023D1
:10299000FB610023BB6100237B6200237B6100237A
:1029A0003B622A4B5B68FB61FB6903F00C03042B61
:1029B00002D0082B03D03FE0254B3B623FE0FB6990
:1029C00003F470124FF47013BB60BB6893FAA3F367
:1029D0007B607B68B3FA83F322FA03F31D4AD35C6E
:1029E0007B611A4BDB6A03F00F020F233B613B69EB
:1029F00093FAA3F3FB60FB68B3FA83F322FA03F3C1
:102A0000154AD35CBB61FB6903F48033002B08D00B
:102A10000F4ABB69B2FBF3F37A6902FB03F37B62F3
:102A200007E00B4ABB69B2FBF3F37A6902FB03F3DD
:102A30007B627B6A3B6202E0054B3B6200BF3B6A04
:102A400018462C37BD465DF8047B704700100240E5
:102A500000127A00805D0008905D000880B400AF2D
:102A6000034B1B681846BD465DF8047B704700BFEA
:102A70001000002080B582B000AFFFF7EFFF0146E5
:102A80000B4B5B6803F4E0624FF4E0637B607B68B0
:102A900093FAA3F33B603B68B3FA83F322FA03F3A0
:102AA000044AD35C21FA03F318460837BD4680BDBB
:102AB00000100240B05D000880B582B000AFFFF7A3
:102AC000CDFF01460B4B5B6803F460524FF460533B
:102AD0007B607B6893FAA3F33B603B68B3FA83F3B4
:102AE00022FA03F3044AD35C21FA03F318460837A9
:102AF000BD4680BD00100240B05D000880B483B0C8
:102B000000AF786039607B680F221A60124B5B68F7
:102B100003F003027B685A600F4B5B6803F0F0021E
:102B20007B689A600C4B5B6803F4E0627B68DA6058
:102B3000094B5B68DB0803F4E0627B681A61074BB2
:102B40001B6803F007023B681A6000BF0C37BD46E4
:102B50005DF8047B704700BF001002400020024077
:102B600080B592B000AF786000233B640023FB6324
:102B70007B681B6803F48033002B00F0D6800023B1
:102B800087F847304D4BDB6903F08053002B0ED1A3
:102B90004A4A4A4BDB6943F08053D361474BDB69B8
:102BA00003F08053BB60BB68012387F84730444B78
:102BB0001B6803F48073002B18D1414A404B1B68FB
:102BC00043F480731360FDF735FB386408E0FDF7CC
:102BD00031FB02463B6CD31A642B01D90323D4E1A9
:102BE000374B1B6803F48073002BF0D0334B1B6A08
:102BF00003F44073FB63FB6B002B00F083807B6866
:102C00005B6803F44072FB6B9A427BD02B4B1B6AD0
:102C100023F44073FB634FF480333B633B6B93FAC5
:102C2000A3F3FB62FB6AB3FA83F31A46254B134402
:102C30009B001A46012313604FF48033BB63BB6BC8
:102C400093FAA3F37B637B6BB3FA83F31A461D4BB2
:102C500013449B001A4600231360184AFB6B13624F
:102C6000FB6B03F00103002B4CD0FDF7E3FA386453
:102C70000AE0FDF7DFFA02463B6CD31A41F28832D4
:102C8000934201D9032380E10223BB62BB6A93FA1A
:102C9000A3F37B6202233B623B6A93FAA3F3FB61DB
:102CA000FB69B3FA83F3DBB25B09DBB243F00203E7
:102CB000DBB2022B08D1014B1B6A0DE00010024071
:102CC00000700040008190100223BB61BB6993FA41
:102CD000A3F37B619C4B5B6A02223A613A6992FAE8
:102CE000A2F2FA60FA68B2FA82F252B242F04002FC
:102CF00052B2D2B202F01F02012101FA02F21340D5
:102D0000002BB6D09049904B1B6A23F440727B682D
:102D10005B6813430B6297F84730012B05D18A4A51
:102D2000894BDB6923F08053D3617B681B6803F018
:102D30000103002B08D08449834B1B6B23F0030253
:102D40007B689B6813430B637B681B6803F002037B
:102D5000002B08D07C497C4B1B6B23F440327B68F2
:102D6000DB6813430B637B681B6803F00403002BD1
:102D700008D07549744B1B6B23F440227B681B6998
:102D800013430B637B681B6803F02003002B08D000
:102D90006D496D4B1B6B23F010027B68DB6913439D
:102DA0000B637B681B6803F40033002B08D0664973
:102DB000654B5B6823F480027B685B6D13434B605B
:102DC0007B681B6803F04003002B08D05E495E4B14
:102DD0001B6B23F020027B681B6A13430B637B6829
:102DE0001B6803F48023002B08D05749564B1B6BFC
:102DF00023F040027B685B6A13430B637B681B68AC
:102E000003F00803002B08D04F494F4B1B6B23F4F2
:102E100040127B685B6913430B637B681B6803F09C
:102E20001003002B08D04849474B1B6B23F440028A
:102E30007B689B6913430B637B681B6803F4007317
:102E4000002B08D04049404B5B6823F400027B68AC
:102E50001B6B13434B607B681B6803F08003002BE4
:102E600008D03949384BDB6A23F4F8727B689B6AD7
:102E70001343CB627B681B6803F48073002B08D07C
:102E80003149314BDB6A23F478527B68DB6A1343A8
:102E9000CB627B681B6803F48053002B08D02A495F
:102EA000294B1B6B23F480727B685B6B13430B63B2
:102EB0007B681B6803F40053002B08D02249224B87
:102EC0001B6B23F400727B681B6C13430B637B68E2
:102ED0001B6803F48013002B08D01B491A4B1B6B93
:102EE00023F080727B689B6B13430B637B681B68CA
:102EF00003F40013002B08D01349134B1B6B23F072
:102F000000727B68DB6B13430B637B681B6803F405
:102F10008003002B08D00C490B4B1B6B23F4806201
:102F20007B685B6C13430B637B681B6803F40003D3
:102F3000002B0BD00449044B1B6B23F400627B680D
:102F40009B6C13430B6301E0001002407B681B681D
:102F500003F08073002B08D00E490E4B1B6B23F43B
:102F600000527B68DB6C13430B637B681B6803F0C8
:102F70000073002B08D00749064B1B6B23F400425B
:102F80007B681B6D13430B63002318464837BD460F
:102F900080BD00BF0010024080B582B000AF7860F5
:102FA0007B68002B01D101231DE07B6893F83D3045
:102FB000DBB2002B06D17B68002283F83C207868C6
:102FC00000F015F87B68022283F83D207B681A68C0
:102FD0007B6804331946104600F076F97B680122BD
:102FE00083F83D20002318460837BD4680BD80B4D5
:102FF00083B000AF786000BF0C37BD465DF8047B3E
:10300000704780B483B000AF78607B681B687A68D3
:103010001268D26842F00102DA607B681B687A6845
:103020001268126842F001021A60002318460C3739
:10303000BD465DF8047B704780B582B000AF786014
:103040007B681B681B6903F00203022B22D17B689B
:103050001B68DB6803F00203022B1BD17B681B6833
:103060006FF002021A617B6801221A777B681B6885
:103070009B6903F00303002B03D0786800F005F987
:1030800005E0786800F0F7F8786800F008F97B68E8
:1030900000221A777B681B681B6903F00403042B6A
:1030A00022D17B681B68DB6803F00403042B1BD16F
:1030B0007B681B686FF004021A617B6802221A7732
:1030C0007B681B689B6903F44073002B03D078680E
:1030D00000F0DBF805E0786800F0CDF8786800F0E3
:1030E000DEF87B6800221A777B681B681B6903F097
:1030F0000803082B22D17B681B68DB6803F00803F8
:10310000082B1BD17B681B686FF008021A617B6873
:1031100004221A777B681B68DB6903F00303002B2A
:1031200003D0786800F0B1F805E0786800F0A3F803
:10313000786800F0B4F87B6800221A777B681B6817
:103140001B6903F01003102B22D17B681B68DB681E
:1031500003F01003102B1BD17B681B686FF010026B
:103160001A617B6808221A777B681B68DB6903F4A5
:103170004073002B03D0786800F087F805E078688A
:1031800000F079F8786800F08AF87B6800221A77F6
:103190007B681B681B6903F00103012B0ED17B6860
:1031A0001B68DB6803F00103012B07D17B681B68F8
:1031B0006FF001021A61786802F0E0FA7B681B6820
:1031C0001B6903F08003802B0ED17B681B68DB68D2
:1031D00003F08003802B07D17B681B686FF08002AF
:1031E0001A61786800F01AF97B681B681B6903F4A0
:1031F0008073B3F5807F0ED17B681B68DB6803F0BA
:103200008003802B07D17B681B686FF480721A6182
:10321000786800F00DF97B681B681B6903F04003B8
:10322000402B0ED17B681B68DB6803F04003402B0A
:1032300007D17B681B686FF040021A61786800F064
:1032400038F87B681B681B6903F02003202B0ED124
:103250007B681B68DB6803F02003202B07D17B68A9
:103260001B686FF020021A61786800F0CDF800BF8B
:103270000837BD4680BD80B483B000AF786000BF22
:103280000C37BD465DF8047B704780B483B000AF57
:10329000786000BF0C37BD465DF8047B704780B492
:1032A00083B000AF786000BF0C37BD465DF8047B8B
:1032B000704780B483B000AF786000BF0C37BD4664
:1032C0005DF8047B7047000080B485B000AF786083
:1032D00039600023FB607B681B68FB607B68424AA7
:1032E000934213D07B68B3F1804F0FD07B683F4A85
:1032F00093420BD07B683E4A934207D07B683D4A9D
:10330000934203D07B683C4A934208D1FB6823F088
:103310007003FB603B685B68FA681343FB607B6883
:10332000314A93421FD07B68B3F1804F1BD07B683A
:103330002E4A934217D07B682D4A934213D07B6864
:103340002C4A93420FD07B682C4A93420BD07B6867
:103350002B4A934207D07B682A4A934203D07B686A
:10336000254A934208D1FB6823F44073FB603B6815
:10337000DB68FA681343FB60FB6823F080023B685C
:103380005B691343FB607B68FA681A603B689A6864
:103390007B68DA623B681A687B689A627B68124ACB
:1033A000934213D07B68134A93420FD07B68134A31
:1033B00093420BD07B68124A934207D07B68114A34
:1033C000934203D07B680C4A934203D13B681A694D
:1033D0007B681A637B6801225A6100BF1437BD46BF
:1033E0005DF8047B704700BF002C014000040040E2
:1033F00000080040003401400050014000400140FE
:10340000004401400048014080B483B000AF7860C0
:1034100000BF0C37BD465DF8047B704780B483B0B5
:1034200000AF786000BF0C37BD465DF8047B704785
:1034300080B483B000AF786000BF0C37BD465DF844
:10344000047B704780B582B000AF78607B68002B4A
:1034500001D1012343E07B6893F86930DBB2002B94
:1034600006D17B68002283F86820786802F0AEFA03
:103470007B68242283F869207B681B687A6812685D
:10348000126822F001021A60786800F02DF80346F5
:10349000012B01D1012322E07B685B6A002B02D063
:1034A000786800F01FFA7B681B687A6812685268B7
:1034B00022F490425A607B681B687A6812689268AE
:1034C00022F02A029A607B681B687A681268126888
:1034D00042F001021A60786800F0A6FA0346184626
:1034E0000837BD4680BD000090B587B000AF78605A
:1034F0000023FB601023FB7500237B810023BB822C
:103500000023FB747B689A687B681B691A437B689D
:103510005B691A437B68DB691343FB607B681A684D
:103520007B681B681968A64B0B40F9680B43136056
:103530007B681B687A681268526822F440517A6886
:10354000D2680A435A607B689A697B681B6A134396
:10355000FB607B681B687A681268926822F43061AD
:10356000FA680A439A607B681B68964A934221D1A5
:10357000954B1B6B03F00303032B17D801A252F8E2
:1035800023F000BF95350008A1350008A7350008D5
:103590009B3500080123FB75B2E00223FB75AFE009
:1035A0000423FB75ACE00823FB75A9E01023FB7531
:1035B00000BFA5E07B681B68844A934223D1824BFD
:1035C0001B6B03F44033B3F5803F12D0B3F5803F5B
:1035D00002D8002B07D012E0B3F5003F0CD0B3F5B2
:1035E000403F03D00BE00023FB7589E00223FB750D
:1035F00086E00423FB7583E00823FB7580E010233D
:10360000FB7500BF7CE07B681B68714A934223D145
:103610006D4B1B6B03F44023B3F5802F12D0B3F531
:10362000802F02D8002B07D012E0B3F5002F0CD06A
:10363000B3F5402F03D00BE00023FB7560E00223BD
:10364000FB755DE00423FB755AE00823FB7557E02A
:103650001023FB7500BF53E07B681B685D4A9342F3
:1036600023D1594B1B6B03F44013B3F5801F12D0C9
:10367000B3F5801F02D8002B07D012E0B3F5001F6E
:103680000CD0B3F5401F03D00BE00023FB7537E0EF
:103690000223FB7534E00423FB7531E00823FB753E
:1036A0002EE01023FB7500BF2AE07B681B684A4AA6
:1036B000934223D1444B1B6B03F44003B3F5800FBB
:1036C00012D0B3F5800F02D8002B07D012E0B3F56B
:1036D000000F0CD0B3F5400F03D00BE00023FB75B7
:1036E0000EE00223FB750BE00423FB7508E00823C2
:1036F000FB7505E01023FB7500BF01E01023FB758F
:103700007B68DB69B3F5004F7DD1FB7D082B65D865
:1037100001A252F823F000BF3D37000859370008D6
:1037200075370008DD3700088F370008DD370008DF
:10373000DD370008DD370008AB370008FFF79AF9DE
:1037400003465A007B685B685B081A447B685B68C9
:10375000B2FBF3F3BB8244E0FFF7AEF903465A0035
:103760007B685B685B081A447B685B68B2FBF3F3B9
:10377000BB8236E07B685B685B0803F5740303F586
:1037800010537A685268B3FBF2F3BB8229E0FFF76B
:10379000FBF803465A007B685B685B081A447B6849
:1037A0005B68B2FBF3F3BB821BE07B685B685B0882
:1037B00003F580327B685B68B2FBF3F3BB8210E0F9
:1037C000F369FFEF00380140001002400044004060
:1037D00000480040004C0040005000400123FB74B2
:1037E00000BFBB8A23F00F037B81BB8A5B109BB2B7
:1037F00003F007039AB27B8913437B817B681B68C4
:103800007A89DA6069E0FB7D082B63D801A252F85F
:1038100023F000BF3938000859380008793800080B
:10382000D538000899380008D5380008D538000880
:10383000D5380008B93800087B681C68FFF71AF90A
:1038400002467B685B685B081A447B685B68B2FB76
:10385000F3F39BB2E36040E07B681C68FFF72CF950
:1038600002467B685B685B081A447B685B68B2FB56
:10387000F3F39BB2E36030E07B681A687B685B68B7
:103880005B0803F5F40303F5905379684968B3FBCB
:10389000F1F39BB2D36020E07B681C68FFF774F8FB
:1038A00002467B685B685B081A447B685B68B2FB16
:1038B000F3F39BB2E36010E07B681B687A685268A0
:1038C000520802F500417A685268B1FBF2F292B2F6
:1038D000DA6002E00123FB7400BFFB7C18461C3752
:1038E000BD4690BD80B483B000AF78607B685B6AF2
:1038F00003F00103002B0AD07B681B687A6812680A
:10390000526822F400317A68926A0A435A607B68EE
:103910005B6A03F00203002B0AD07B681B687A689D
:103920001268526822F480317A68D26A0A435A6077
:103930007B685B6A03F00403002B0AD07B681B687A
:103940007A681268526822F480217A68126B0A43FE
:103950005A607B685B6A03F00803002B0AD07B681F
:103960001B687A681268526822F400417A68526BC8
:103970000A435A607B685B6A03F01003002B0AD08D
:103980007B681B687A681268926822F480517A68B2
:10399000926B0A439A607B685B6A03F02003002BFA
:1039A0000AD07B681B687A681268926822F400511A
:1039B0007A68D26B0A439A607B685B6A03F04003C3
:1039C000002B1AD07B681B687A681268526822F450
:1039D00080117A68126C0A435A607B681B6CB3F5DD
:1039E000801F0AD17B681B687A681268526822F4CB
:1039F000C0017A68526C0A435A607B685B6A03F0C4
:103A00008003002B0AD07B681B687A6812685268B2
:103A100022F400217A68926C0A435A6000BF0C3786
:103A2000BD465DF8047B704780B586B002AF786014
:103A30000023FB607B680022DA66FCF7FBFBF86082
:103A40007B681B681B6803F00803082B0ED16FF01E
:103A50007E430093FB6800224FF40011786800F069
:103A60002CF80346002B01D0032322E07B681B685F
:103A70001B6803F00403042B0ED16FF07E43009308
:103A8000FB6800224FF48001786800F016F80346C6
:103A9000002B01D003230CE07B68202283F86920EF
:103AA0007B68202283F86A207B68002283F86820E4
:103AB000002318461037BD4680BD80B584B000AFE6
:103AC000F860B9603B601346FB712CE0BB69B3F151
:103AD000FF3F28D0BB69002B07D0FCF7ABFB0246A9
:103AE0003B68D21ABB699A421DD9FB681B68FA6809
:103AF0001268126822F4D0721A60FB681B68FA68B8
:103B00001268926822F001029A60FB68202283F812
:103B10006920FB68202283F86A20FB68002283F872
:103B2000682003230FE0FB681B68DA69BB681A4052
:103B3000BB689A420CBF01230023DBB21A46FB7913
:103B40009A42C3D0002318461037BD4680BD80B4CA
:103B500085B000AF0346FB800023FB60B7F9063059
:103B6000842B05D0B7F90620FB6813440333FB60B0
:103B7000FB6818461437BD465DF8047B704780B576
:103B800000AF00F0FBFD0023184680BDF0B587B004
:103B900002AF786039607B685C687B681D687B6811
:103BA0001B699EB27B68B3F908301846FFF7CFFF58
:103BB000024607F10C03019300923B683246294606
:103BC000204600F07DFC0346012B01D0002300E0DD
:103BD000FB6818461437BD46F0BD80B584B000AF11
:103BE00078607B68FB60FB68002B01D0FB6800E01D
:103BF0000123184600F08EFD002318461037BD46FD
:103C000080BD80B483B000AF78607B6803F10802A8
:103C10007B685A607B684FF0FF329A607B6803F1E3
:103C200008027B68DA607B6803F108027B681A612E
:103C30007B6800221A6000BF0C37BD465DF8047B2C
:103C4000704780B483B000AF78607B6800221A614F
:103C500000BF0C37BD465DF8047B704780B485B06B
:103C600000AF786039607B685B68FB603B68FA682E
:103C70005A60FB689A683B689A60FB689B683A6880
:103C80005A60FB683A689A603B687A681A617B6898
:103C90001B685A1C7B681A6000BF1437BD465DF86C
:103CA000047B704780B485B000AF786039603B68B2
:103CB0001B68BB60BB68B3F1FF3F03D17B681B6926
:103CC000FB600CE07B680833FB6002E0FB685B682C
:103CD000FB60FB685B681A68BB689A42F6D9FB68B0
:103CE0005A683B685A603B685B683A689A603B6810
:103CF000FA689A60FB683A685A603B687A681A61A9
:103D00007B681B685A1C7B681A6000BF1437BD466D
:103D10005DF8047B704780B485B000AF78607B6845
:103D20001B69FB607B685B687A6892689A607B6855
:103D30009B687A6852685A60FB685A687B689A4246
:103D400003D17B689A68FB685A607B6800221A611D
:103D5000FB681B685A1EFB681A60FB681B681846E4
:103D60001437BD465DF8047B7047000080B485B011
:103D700000AFF860B9607A60FB68043BFB60FB68E9
:103D80004FF080721A60FB68043BFB60BB6823F055
:103D90000102FB681A60FB68043BFB600C4AFB688D
:103DA0001A60FB68143BFB607A68FB681A60FB686A
:103DB000043BFB60FB686FF002021A60FB68203B6B
:103DC000FB60FB6818461437BD465DF8047B7047FE
:103DD000D53D000880B483B000AF0C4B1B68B3F135
:103DE000FF3F09D04FF0500383F31188BFF36F8F6B
:103DF000BFF34F8F7B60FEE74FF0500383F31188D2
:103E0000BFF36F8FBFF34F8F3B60FEE704000020CE
:103E1000074B19680868B0E8F04F80F30988BFF3D2
:103E20006F8F4FF0000080F311887047AFF3008070
:103E3000B018002000BF00BF06480068006880F38B
:103E4000088862B661B6BFF34F8FBFF36F8F00DF94
:103E500000BF00BF08ED00E080B586B000AF3B4B6F
:103E60001B683B4A934209D14FF0500383F31188FA
:103E7000BFF36F8FBFF34F8F3B61FEE7334B1B6880
:103E8000344A934209D14FF0500383F31188BFF3B2
:103E90006F8FBFF34F8FFB60FEE72F4B7B617B691A
:103EA0001B78DBB2BB607B69FF221A707B691B78D1
:103EB000DBB2FB71FB79DBB203F05003DAB2274BC4
:103EC0001A70274B07221A6009E0254B1B68013B3B
:103ED000234A1360FB79DBB25B00DBB2FB71FB7939
:103EE000DBB203F08003802BEFD01D4B1B681B025D
:103EF0001B4A13601A4B1B6803F4E063184A1360F3
:103F0000BB68DAB27B691A70164A164B1B6843F419
:103F100070031360134A134B1B6843F07043136024
:103F200000F0D2F8104B00221A6000F0E9F80F4AB6
:103F30000E4B1B6843F040431360FFF77DFFFFF714
:103F400049FF002318461837BD4680BD00ED00E04C
:103F500071C20F4170C20F4100E400E03000002048
:103F60003400002020ED00E00400002034EF00E0E9
:103F700080B483B000AF4FF0500383F31188BFF3D8
:103F80006F8FBFF34F8F7B600E4B1B6801330D4A61
:103F900013600C4B1B68012B0ED10B4B1B68DBB263
:103FA000002B09D04FF0500383F31188BFF36F8FBC
:103FB000BFF34F8F3B60FEE700BF0C37BD465DF897
:103FC000047B70470400002004ED00E080B483B05F
:103FD00000AF114B1B68002B09D14FF0500383F346
:103FE0001188BFF36F8FBFF34F8F7B60FEE70A4BE3
:103FF0001B68013B084A1360074B1B68002B04D168
:1040000000233B603B6883F3118800BF0C37BD463B
:104010005DF8047B704700BF040000200000000032
:10402000EFF30980BFF36F8F154B1A681EF0100F66
:1040300008BF20ED108A20E9F04F10604DF8043DD4
:104040004FF0500080F31188BFF34F8FBFF36F8F95
:1040500000F040FD4FF0000080F3118808BC1968A3
:104060000868B0E8F04F1EF0100F08BFB0EC108ADF
:1040700080F30988BFF36F8F704700BFAFF30080F4
:10408000B018002000BF00BF80B582B000AF4FF075
:10409000500383F31188BFF36F8FBFF34F8F7B60A3
:1040A00000F05CFC0346002B03D0064B4FF080521F
:1040B0001A6000233B603B6883F3118800BF083718
:1040C000BD4680BD04ED00E080B400AF084A094B56
:1040D0001B680949A1FB03139B09013B1360074BB4
:1040E00007221A6000BFBD465DF8047B704700BF21
:1040F00014E000E010000020D34D621010E000E05A
:10410000DFF80C00016841F470010160704700BFE6
:1041100088ED00E080B58AB000AF78600023FB61D5
:1041200000F072FB574B1B68002B01D100F00CF91B
:10413000554B1A687B681340002B40F08C807B68DD
:10414000002B1CD008227B6813447B607B6803F043
:104150000703002B13D07B6823F0070308337B6031
:104160007B6803F00703002B09D04FF0500383F363
:104170001188BFF36F8FBFF34F8F7B61FEE77B68C2
:10418000002B68D0414B1B687A689A4263D8404B39
:104190003B623F4B1B687B6204E07B6A3B627B6A4D
:1041A0001B687B627B6A5A687B689A4203D27B6A8F
:1041B0001B68002BF1D1334B1B687A6A9A424AD0B4
:1041C0003B6A1B6808221344FB617B6A1A683B6ADE
:1041D0001A607B6A5A687B68D21A08235B009A428D
:1041E0001ED97A6A7B681344BB61BB6903F007037D
:1041F000002B09D04FF0500383F31188BFF36F8F6A
:10420000BFF34F8F3B61FEE77B6A5A687B68D21A27
:10421000BB695A607B6A7A685A60B86900F0F6F840
:104220001A4B1A687B6A5B68D31A184A1360174BDB
:104230001A68184B1B689A4203D2144B1B68154A24
:1042400013607B6A5A68104B1B681A437B6A5A607A
:104250007B6A00221A6000F0E5FAFB6903F00703AD
:10426000002B09D04FF0500383F31188BFF36F8FF9
:10427000BFF34F8FFB60FEE7FB6918462837BD464A
:1042800080BD00BFA0180020AC180020A41800209A
:1042900098180020A818002080B586B000AF78607C
:1042A0007B687B617B68002B46D008235B427A6980
:1042B00013447B617B693B613B695A68204B1B68F7
:1042C0001340002B09D14FF0500383F31188BFF343
:1042D0006F8FBFF34F8FFB60FEE73B691B68002BBE
:1042E00009D04FF0500383F31188BFF36F8FBFF3F2
:1042F0004F8FBB60FEE73B695A68114B1B68134048
:10430000002B19D03B691B68002B15D13B695A68FB
:104310000B4B1B68DB431A403B695A6000F074FA90
:104320003B695A68074B1B681344064A1360386997
:1043300000F06CF800F076FA00BF1837BD4680BD7B
:10434000AC180020A418002080B485B000AF4FF452
:10435000C353BB60274BFB60FB6803F00703002BD4
:104360000CD0FB680733FB60FB6823F00703FB609E
:10437000BA68FB68D31A1F4A1344BB60FB687B60B2
:104380001D4A7B6813601C4B00225A607A68BB6828
:104390001344FB600822FB689B1AFB60FB6823F058
:1043A0000703FB60FB68154A1360144B1B6800226F
:1043B0005A60124B1B6800221A607B683B603B68A6
:1043C000FA68D21A3B685A600C4B1A683B681A604C
:1043D0003B685B680A4A13603B685B68094A136084
:1043E000094B4FF000421A6000BF1437BD465DF81C
:1043F000047B70473800002098180020A018002087
:10440000A8180020A4180020AC18002080B485B0A3
:1044100000AF7860284BFB6002E0FB681B68FB6024
:10442000FB681A687B689A42F7D3FB68BB60FB683D
:104430005B68BA681A447B689A4208D1FB685A687C
:104440007B685B681A44FB685A60FB687B607B682A
:10445000BB607B685B68BA681A44FB681B689A4259
:1044600018D1FB681A68154B1B689A420DD07B68FF
:104470005A68FB681B685B681A447B685A60FB6873
:104480001B681A687B681A6008E00C4B1A687B6826
:104490001A6003E0FB681A687B681A60FA687B6838
:1044A0009A4202D0FB687A681A6000BF1437BD4692
:1044B0005DF8047B704700BF98180020A01800200A
:1044C00080B58CB004AFF860B9603B601346FB80E8
:1044D000FB889B001846FFF71DFE78617B69002B67
:1044E0000ED05420FFF716FEF861FB69002B03D0B5
:1044F000FB697A691A6305E07869FFF7CDFE01E090
:104500000023FB61FB69002B13D0FA88002303937F
:10451000FB690293FB6A0193BB6A00933B68B9682D
:10452000F86800F00EF8F86900F08AF80123BB6122
:1045300002E04FF0FF33BB61BB6918462037BD4630
:1045400080BD80B588B000AFF860B9607A603B602C
:104550003B6B1A6B7B6803F18043013B9B00134468
:10456000BB61BB6923F00703BB61BB6903F00703B1
:10457000002B09D04FF0500383F31188BFF36F8FE6
:10458000BFF34F8F7B61FEE70023FB6112E0BA6847
:10459000FB69134419783A6BFB69134434330A46B8
:1045A0001A70BA68FB6913441B78002B06D0FB69AC
:1045B0000133FB61FB690F2BE9D900E000BF3B6BC6
:1045C000002283F84320BB6A062B01D90623BB6275
:1045D0003B6BBA6ADA623B6BBA6A5A643B6B002285
:1045E0009A643B6B04331846FFF72BFB3B6B183385
:1045F0001846FFF726FB3B6B3A6B1A61BB6AC3F1A7
:1046000007023B6B9A613B6B3A6B5A623B6B002231
:10461000DA643B6B002283F850203A68F968B86985
:10462000FFF7A4FB02463B6B1A60FB6A002B02D02B
:10463000FB6A3A6B1A6000BF2037BD4680BD0000A0
:1046400080B582B000AF7860FFF792FC2A4B1B6800
:104650000133294A1360294B1B68002B09D1274AD3
:104660007B681360244B1B68012B10D100F0A4FA67
:104670000DE0234B1B68002B09D1204B1B68DA6A25
:104680007B68DB6A9A4202D81C4A7B6813601D4B28
:104690001B6801331B4A13607B68DB6A01229A4066
:1046A000194B1B681343184A13607B68DA6A134678
:1046B0009B0013449B00154A1A447B680433194637
:1046C0001046FFF7CBFAFFF781FC0D4B1B68002B60
:1046D0000ED00A4B1B68DA6A7B68DB6A9A4207D203
:1046E0000B4B4FF080521A60BFF34F8FBFF36F8FA9
:1046F00000BF0837BD4680BDB0190020B0180020AB
:10470000BC190020CC190020B8190020B4180020D2
:1047100004ED00E080B584B000AF78600023FB605A
:104720007B68002B16D0134B1B68002B09D04FF071
:10473000500383F31188BFF36F8FBFF34F8FBB60BC
:10474000FEE700F061F80021786800F0E7FA00F079
:1047500069F8F860FB68002B07D1074B4FF08052D7
:104760001A60BFF34F8FBFF36F8F00BF1037BD4686
:1047700080BD00BFD819002004ED00E080B586B0F0
:1047800002AF1B4B019300230093002380221949A1
:104790001948FFF795FEF860FB68012B15D14FF023
:1047A000500383F31188BFF36F8FBFF34F8FBB604C
:1047B000124B4FF0FF321A60114B01221A60114B5D
:1047C00000221A60FFF748FB0DE0FB68B3F1FF3FE2
:1047D00009D14FF0500383F31188BFF36F8FBFF3FC
:1047E0004F8F7B60FEE700BF1037BD4680BD00BF26
:1047F000D41900209C5C0008894B0008D0190020C7
:10480000BC190020B419002080B400AF044B1B6811
:104810000133034A136000BFBD465DF8047B704757
:10482000D819002080B584B000AF0023FB600023BE
:10483000BB60414B1B68002B09D14FF0500383F341
:104840001188BFF36F8FBFF34F8F3B60FEE7FFF719
:104850008FFB394B1B68013B374A1360364B1B6893
:10486000002B61D1354B1B68002B5DD02EE0344B03
:10487000DB68DB68FB60FB6818331846FFF74BFA10
:10488000FB6804331846FFF746FAFB68DB6A01222F
:104890009A402C4B1B6813432A4A1360FB68DA6A60
:1048A00013469B0013449B00274A1A44FB680433B9
:1048B00019461046FFF7D2F9FB68DA6A234B1B68EA
:1048C000DB6A9A4202D3224B01221A601C4B1B68FE
:1048D000002BCCD1FB68002B01D000F0F9F91D4B67
:1048E0001B687B607B68002B10D000F037F8034614
:1048F000002B02D0164B01221A607B68013B7B60C3
:104900007B68002BF1D1134B00221A60104B1B68FF
:10491000002B09D00123BB600F4B4FF080521A606F
:10492000BFF34F8FBFF36F8FFFF750FBBB68184685
:104930001037BD4680BD00BFD8190020B019002037
:1049400070190020B8190020B4180020B0180020F9
:10495000C4190020C019002004ED00E080B586B025
:1049600000AF00237B61504B1B68002B40F08C8014
:104970004E4B1B6801333B614C4A3B6913603B69FA
:10498000002B1FD14A4B1B681B68002B09D04FF02E
:10499000500383F31188BFF36F8FBFF34F8F3B60DA
:1049A000FEE7434B1B68FB60424B1B68404A1360A9
:1049B000404AFB681360404B1B6801333E4A13605A
:1049C00000F086F93D4B1B683A699A424DD3384B4B
:1049D0001B681B68002B01D1012300E00023002B82
:1049E00004D0364B4FF0FF321A603EE0304B1B686C
:1049F000DB68DB68BB60BB685B687B603A697B68CF
:104A00009A4203D22D4A7B6813602EE0BB680433C0
:104A10001846FFF780F9BB689B6A002B04D0BB687F
:104A200018331846FFF777F9BB68DB6A01229A4012
:104A3000234B1B681343224A1360BB68DA6A134690
:104A40009B0013449B001F4A1A44BB680433194659
:104A50001046FFF703F9BB68DA6A1B4B1B68DB6A79
:104A60009A42B4D301237B61B1E7174B1B68DA6A22
:104A7000144913469B0013449B000B441B68012BF5
:104A800007D901237B6104E0104B1B6801330F4AF7
:104A900013600F4B1B68002B01D001237B617B69E6
:104AA00018461837BD4680BDD8190020B41900201B
:104AB000681900206C190020C8190020D0190020A6
:104AC000B8190020B4180020B0180020C019002028
:104AD000C419002080B487B000AF264B1B68002BA0
:104AE00003D0254B01221A603EE0234B00221A60BE
:104AF000224B1B68FB60FB68B3FA83F3FB72FB7A03
:104B0000C3F11F037B611E497A6913469B0013445E
:104B10009B000B441B68002B09D14FF0500383F31B
:104B20001188BFF36F8FBFF34F8F7B60FEE77A6909
:104B300013469B0013449B00114A13443B613B699D
:104B40005B685A683B695A603B695A683B6908333D
:104B50009A4204D13B695B685A683B695A603B6979
:104B60005B68DB68074A136000BF1C37BD465DF811
:104B7000047B7047D8190020C4190020B819002000
:104B8000B4180020B018002080B582B000AF786063
:104B900000F052F8064B1B68012BF9D9054B4FF07A
:104BA00080521A60BFF34F8FBFF36F8FF0E700BFE3
:104BB000B418002004ED00E080B582B000AF0023FF
:104BC0007B600CE07A6813469B0013449B00124AFA
:104BD00013441846FFF715F87B6801337B607B6848
:104BE000062BEFD90D48FFF70CF80D48FFF709F831
:104BF0000C48FFF706F80C48FFF703F80B48FFF7DF
:104C000000F80B4B054A1A600A4B054A1A6000BFB0
:104C10000837BD4680BD00BFB418002040190020F1
:104C20005419002070190020841900209C190020BC
:104C3000681900206C19002080B582B000AF28E010
:104C4000FFF7E2FD174B1B68002B0CBF012300236D
:104C5000DBB27B60FFF7E6FD7B68002B19D1FFF725
:104C600087F9104BDB68DB683B603B680433184610
:104C7000FFF751F80C4B1B68013B0B4A13600B4BC1
:104C80001B68013B094A1360FFF7A0F9386800F080
:104C90000FF8064B1B68002BD2D100BF0837BD466A
:104CA00080BD00BF84190020B01900209819002091
:104CB00080B582B000AF78607B681B6B1846FFF749
:104CC000EBFA7868FFF7E8FA00BF0837BD4680BD09
:104CD00080B483B000AF0F4B1B681B68002B01D161
:104CE000012300E00023002B04D00B4B4FF0FF32D8
:104CF0001A6008E0074B1B68DB68DB687B607B6839
:104D00005B68054A136000BF0C37BD465DF8047B45
:104D1000704700BF68190020D019002080B584B00A
:104D200000AF78603960294B1B68FB60284B1B681B
:104D300004331846FEF7EFFF0346002B0BD1244B3C
:104D40001B68DB6A012202FA03F3DA43214B1B687A
:104D50001340204A13607B68B3F1FF3F0AD13B68E0
:104D6000002B07D01A4B1B68043319461A48FEF76C
:104D700075FF26E0FA687B681344BB60144B1B6820
:104D8000BA685A60BA68FB689A4209D2134B1A682B
:104D90000F4B1B68043319461046FEF783FF10E0E3
:104DA0000F4B1A680A4B1B68043319461046FEF76E
:104DB00079FF0C4B1B68BA689A4202D2094ABB6859
:104DC000136000BF1037BD4680BD00BFB41900207E
:104DD000B0180020B81900209C1900206C19002080
:104DE00068190020D0190020B0B5A4B000AFFBF7BF
:104DF000F7F900F09BF800F095F900F063F900F086
:104E0000F3F83C4B07F17C041D460FCD0FC42B6813
:104E1000236007F17C0300211846FEF7B7FE024627
:104E2000354B1A60354B07F168041D460FCD0FC492
:104E30002B68236007F1680300211846FEF7A6FEE1
:104E400002462F4B1A602F4B07F154041D460FCD1D
:104E50000FC42B68236007F1540300211846FEF7A6
:104E600095FE0246284B1A60284B07F140041D4668
:104E70000FCD0FC42B68236007F1400300211846B3
:104E8000FEF784FE0246224B1A60224B07F12C04E7
:104E90001D460FCD0FC42B68236007F12C030021A2
:104EA0001846FEF773FE02461B4B1A601B4B07F1B8
:104EB00018041D460FCD0FC42B68236007F118039B
:104EC00000211846FEF762FE0246154B1A60154B8C
:104ED0003C1D1D460FCD0FC42B6823603B1D0021D8
:104EE0001846FEF753FE02460F4B1A60FEF747FEC8
:104EF000FEE700BFB05C0008F0190020D05C00089D
:104F0000C81A0020F05C0008F41900200C5D0008AD
:104F10004C1A00202C5D0008541A00204C5D00083B
:104F2000CC1A00206C5D0008501A002080B5A6B095
:104F300000AF07F1700328220021184600F09AFE06
:104F400007F15C0300221A605A609A60DA601A6105
:104F50003B1D58220021184600F08CFE02233B67BF
:104F60000123FB671023C7F880300223C7F888307D
:104F70004FF40043C7F88C304FF4E013C7F890307B
:104F80000023C7F8943007F170031846FCF792FC31
:104F90000346002B01D000F003FC0F23FB65022326
:104FA0003B6600237B664FF48063BB660023FB6691
:104FB00007F15C0302211846FDF76AFB0346002B4C
:104FC00001D000F0EDFB02237B6000233B613B1D21
:104FD0001846FDF7C5FD0346002B01D000F0E0FBAD
:104FE00000BF9837BD4680BD80B58AB000AF07F1DD
:104FF0001C0300221A605A609A603B1D00221A604E
:105000005A609A60DA601A615A612D4B4FF0A042E3
:105010001A602B4B4FF440325A60294B00229A60A1
:10502000274B00221A61264B0022DA61244B002212
:105030005A62234B00221A63214B0122DA62204B71
:105040000022DA601E4B01221A621D4B00225A63B5
:105050001B4B04225A611A4B00229A61184B002202
:105060009A631748FBF7F2F80346002B01D000F0D3
:1050700097FB0023FB6107F11C0319461048FBF75F
:10508000E9FF0346002B01D000F08AFB0E237B6072
:105090000123BB6000233B610023FB6000237B6195
:1050A0000023BB613B1D19460548FBF7E7FC03469F
:1050B000002B01D000F074FB00BF2837BD4680BD37
:1050C000F819002080B500AF144B154A1A60134B35
:1050D0004FF416425A60114B00229A600F4B002287
:1050E000DA600E4B00221A610C4B0C225A610B4BFA
:1050F00000229A61094B0022DA61084B00221A62F1
:10510000064B00225A620548FEF79CF90346002B25
:1051100001D000F045FB00BF80BD00BF581A002041
:105120000044004080B58AB000AF07F114030022AC
:105130001A605A609A60DA601A614A4A494B5B69A0
:1051400043F400235361474B5B6903F400233B6145
:105150003B69444A434B5B6943F480035361414BD1
:105160005B6903F48003FB60FB683E4A3D4B5B696F
:1051700043F4003353613B4B5B6903F40033BB6082
:10518000BB68384A374B5B6943F480235361354B26
:105190005B6903F480237B607B6800224FF4F95144
:1051A0004FF09040FCF76EFB00224FF460712E48E8
:1051B000FCF768FB4FF400537B612C4BBB61002371
:1051C000FB6107F1140319462748FCF7CDF92023AA
:1051D0007B610123BB610023FB6100233B6207F17C
:1051E000140319464FF09040FCF7BEF94FF400430A
:1051F0007B610023BB610223FB6107F114031946A5
:105200001B48FCF7B1F940237B610023BB610223FB
:10521000FB6107F1140319461348FCF7A5F94FF495
:1052200060737B610123BB610223FB6103233B624B
:1052300007F1140319460C48FCF796F94FF4F8539C
:105240007B610123BB610223FB6103233B6207F106
:10525000140319464FF09040FCF786F900BF283739
:10526000BD4680BD0010024000080048000021102B
:105270000004004880B582B000AF78600120FEF7DE
:10528000ACFCFBE780B582B000AF786001224FF440
:1052900080711D48FCF7F6FA1C4B1B78002BFBD1E4
:1052A0001B4BB3F90030142B04DC194BB3F900305D
:1052B000002B09DA012220214FF09040FCF7E2FA9E
:1052C000144B01221A701DE001224FF400710E48A8
:1052D000FCF7D8FA00F06CFA0D4BB3F90030184621
:1052E000FEF77BFC00F08CFA00224FF400710648B8
:1052F000FCF7C8FA064BB3F90030C3F114031846A3
:10530000FEF76BFCC8E700BF00080048080000205B
:105310000A000020DE19002080B582B000AF78605E
:105320001C4B1B78002BFBD11B4BB3F90030142B0B
:1053300004DC194BB3F90030002B09DA01222021DB
:105340004FF09040FCF79EFA144B01221A701FE0B8
:1053500001224FF480614FF09040FCF793FA00F087
:1053600061FA0D4BB3F900301846FEF736FC00F039
:1053700081FA00224FF480614FF09040FCF782FAEE
:10538000054BB3F90030C3F114031846FEF725FCB2
:10539000C6E700BF090000200C000020DE19002035
:1053A00080B586B000AF7860494B1B88FB82494BC3
:1053B0001B88BB82484B1B887B82484B1B883B82E7
:1053C000474B1B88FB81012000F090F84548FBF714
:1053D00037F945494348FBF749FA4248FBF740FB98
:1053E00003469BB2FB81FB899BB29B089BB2FB816E
:1053F000062000F07BF83B48FBF722F93A49394890
:10540000FBF734FA3748FBF72BFB03469BB2BB8212
:10541000BB8A9BB29B089BB2BB82072000F066F858
:105420003048FBF70DF930492E48FBF71FFA2D489D
:10543000FBF716FB03469BB2FB82FB8A9BB29B08E1
:105440009BB2FB82082000F051F82648FBF7F8F8E1
:1054500025492448FBF70AFA2248FBF701FB0346DB
:105460009BB23B823B8A9BB29B089BB23B8209204A
:1054700000F03CF81B48FBF7E3F81B491948FBF721
:10548000F5F91848FBF7ECFA03469BB27B827B8A5E
:105490009BB29B089BB27B820220FEF79EFBFB8A9D
:1054A0009AB20B4B1A80BB8A9AB20A4B1A807B8A3B
:1054B0009AB2094B1A803B8A9AB2084B1A80FB8930
:1054C0009AB2074B1A800A20FEF787FB7BE700BFE2
:1054D000E6190020E8190020EC190020EA19002044
:1054E000E4190020F8190020A086010080B588B0DA
:1054F00000AF786007F1080300221A605A609A60D2
:10550000DA601A615A617B68013B082B23D801A23B
:1055100052F823F039550008575500085755000830
:1055200057550008575500083F55000845550008D5
:105530004B550008515500080123BB600DE00623C0
:10554000BB600AE00723BB6007E00823BB6004E000
:105550000923BB6001E00123BB600123FB60002342
:105560007B6100233B610023BB610023FB6107F1EA
:10557000080319460548FBF781FA0346002B01D0C2
:1055800000F00EF900BF2037BD4680BDF81900209D
:1055900080B584B000AF7860324B00221A70324B75
:1055A00000221A70314B00221A80314B00221A80DF
:1055B00000F0BCF841F28830FEF70FFB00F0BEF8B7
:1055C00040F6B830FEF709FB00F0C0F840F6B830FE
:1055D000FEF703FB274B1B881A464FF47A7303FB35
:1055E00002F2254B1B8819464FF4FA6303FB01F3C3
:1055F0001A44224B1B88194640F6B83303FB01F3CB
:105600001A441F4B1B8819464FF47A6303FB01F3BE
:105610001A441C4B1B881946164B1B880B44164911
:1056200009880B44154909880B44154909880B441E
:1056300092FBF3F3FB60FB680A33B3F5FA6F02DA0F
:1056400000F07CF809E0FB680A3BB3F5FA6F02DD75
:1056500000F07CF801E000F069F88C20FEF7BDFA5C
:10566000B8E700BF08000020090000200A00002061
:105670000C000020E8190020EC190020EA19002095
:10568000E4190020E619002080B483B000AF7860F0
:105690003960244BB3F900301A467B689A4209DA24
:1056A000204BB3F900309BB201339BB21AB21D4BB1
:1056B0001A800FE01B4BB3F900301A467B689A4200
:1056C00008DD184BB3F900309BB2013B9BB21AB214
:1056D000144B1A80144BB3F900301A463B689A42B7
:1056E00009DA114BB3F900309BB201339BB21AB205
:1056F0000D4B1A800FE00C4BB3F900301A463B6893
:105700009A4208DD084BB3F900309BB2013B9BB2D3
:105710001AB2054B1A8000BF0C37BD465DF8047BFA
:10572000704700BF0A0000200C00002080B500AFC9
:1057300006210620FFF7A8FF00BF80BD80B500AF9F
:1057400006210420FFF7A0FF00BF80BD80B500AF99
:1057500004210620FFF798FF00BF80BD80B582B00E
:1057600000AF78600120FEF738FAFBE780B582B021
:1057700000AF78600120FEF730FAFBE780B582B019
:1057800000AF78607B681B68044A934201D1FAF746
:105790003DFD00BF0837BD4680BD00BF002C014065
:1057A00080B400AF00BFBD465DF8047B70470000C9
:1057B00080B500AF114B1B78002B0ED101224FF4A6
:1057C00080714FF09040FCF75DF800224FF40071BB
:1057D0004FF09040FCF756F80DE000224FF4807136
:1057E0004FF09040FCF74EF801224FF400714FF05B
:1057F0009040FCF747F800BF80BD00BFDC190020D7
:1058000080B500AF00224FF480714FF09040FCF75C
:1058100039F800224FF400714FF09040FCF732F855
:1058200000BF80BD80B500AF114B1B78002B0ED19F
:1058300001224FF400614FF09040FCF723F8002262
:105840004FF480514FF09040FCF71CF80DE000221F
:105850004FF400614FF09040FCF714F801224FF430
:1058600080514FF09040FCF70DF800BF80BD00BFA5
:10587000DD19002080B500AF00224FF400614FF029
:105880009040FBF7FFFF00224FF480514FF0904013
:10589000FBF7F8FF00BF80BD80B582B000AF114AB2
:1058A000104B9B6943F0010393610E4B9B6903F01E
:1058B00001037B607B680B4A0A4BDB6943F0805332
:1058C000D361084BDB6903F080533B603B680022E7
:1058D0000F216FF00100FBF71DFE00BF0837BD462A
:1058E00080BD00BF0010024080B58CB000AF786072
:1058F00007F11C0300221A605A609A60DA601A618C
:105900007B681B68B3F1A04F55D12D4A2C4B5B69C6
:1059100043F0805353612A4B5B6903F08053BB61B2
:10592000BB69274A264B5B6943F400235361244B30
:105930005B6903F400237B617B69214A204B5B692F
:1059400043F4003353611E4B5B6903F400333B6146
:105950003B691B4A1A4B5B6943F480235361184B24
:105960005B6903F48023FB60FB680F23FB61032367
:105970003B6200237B6207F11C0319461148FBF7C9
:10598000F3FD0123FB6103233B6200237B6207F1EC
:105990001C0319464FF09040FBF7E6FD4FF40063FF
:1059A000FB6103233B6200237B6207F11C03194662
:1059B0000548FBF7D9FD00BF3037BD4680BD00BFAD
:1059C00000100240000800480004004880B58AB07A
:1059D00000AF786007F1140300221A605A609A60E1
:1059E000DA601A617B681B68174A934228D1174A0C
:1059F000164BDB6943F40033D361144BDB6903F4CA
:105A000000333B613B69114A104B5B6943F400333F
:105A100053610E4B5B6903F40033FB60FB680C239E
:105A20007B610223BB610023FB6100233B620723F0
:105A30007B6207F1140319464FF09040FBF794FD89
:105A400000BF2837BD4680BD004400400010024022
:105A500080B58CB000AF78600023FB620023BB628E
:105A6000002279681920FBF755FD1920FBF76EFD20
:105A70001E4A1E4B9B6943F4006393611B4B9B6959
:105A800003F40063FB60FB6807F1100207F11403E5
:105A900011461846FDF732F8FDF70EF8F862FB6A7A
:105AA000134AA2FB03239B0C013BBB62114B124A1E
:105AB0001A60104B40F2E732DA600E4ABB6A53605C
:105AC0000C4B00221A610B4B00229A600948FDF72B
:105AD00063FA0346002B04D10648FDF792FA034609
