:020000040800F2
:1000000000000120C12D0008412D0008432D0008EB
:10001000452D0008472D0008492D0008000000006C
:10002000000000000000000000000000511D00085A
:100030004B2D000800000000E11D0008451E0008CF
:10004000112E0008112E0008112E0008112E000894
:10005000112E0008112E0008112E0008112E000884
:10006000112E0008112E0008112E0008112E000874
:10007000112E0008112E0008112E0008112E000864
:10008000112E0008112E0008112E0008112E000854
:10009000112E0008112E0008112E0008112E000844
:1000A000112E00084D2D0008112E0008112E0008F9
:1000B000112E0008112E0008112E0008112E000824
:1000C000112E0008112E0008112E0008112E000814
:1000D000112E0008112E0008112E0008112E000804
:1000E000112E0008112E0008112E0008112E0008F4
:1000F000112E0008112E0008112E0008112E0008E4
:10010000112E00080000000000000000112E000861
:10011000112E0008112E0008112E0008112E0008C3
:10012000112E0008112E0008112E0008112E0008B3
:10013000112E0008112E0008000000000000000031
:10014000112E0008112E0008112E000800000000DA
:10015000000000000000000000000000000000009F
:10016000112E0008112E0008112E0008112E000873
:10017000112E0008112E0008112E0008112E000863
:10018000112E0008112E00080000000000000000E1
:04019000112E000824
:1001A00010B5054C237833B9044B13B10448AFF3B1
:1001B00000800123237010BD10000020000000000B
:1001C0006C2E000808B5034B1BB103490348AFF37D
:1001D000008008BD00000000140000206C2E000804
:1001E000074A08B5136843F010031360032000F0BA
:1001F000AFFB002002F068FD02F0C0FC002008BD4B
:1002000000200240034A044B11681B780B44136022
:10021000704700BFDC19002000000020014B186867
:10022000704700BFDC19002038B5036804469868A1
:1002300000F00300012801D0002038BD1A68D20761
:10024000FAD59A6802F00D02012A1BD19A6842F091
:1002500002029A6003221A60FFF7E0FF0546236856
:100260009B68DB07E8D5FFF7D9FF401B0228F6D9CA
:10027000636C43F010036364A36C43F00103A36455
:10028000012038BD636C43F010036364A36C43F03A
:100290000103A36438BD000070B596B0002300933D
:1002A0000446002800F09180426CD20663D4436C6F
:1002B000002B2ED0002023689A68D10002D59B68BD
:1002C0009A000AD5636C23F0120343F010036364B1
:1002D000A36C43F00103A3640120636CDB066ED4BE
:1002E00000286CD123689D6815F0040567D1626C05
:1002F00022F4817242F00202B3F1A04F6264784AA4
:1003000065D0934266D14FF0A042019202F540724F
:1003100066E083640365C36480F8403002F04EFCFD
:1003200023689B68DE00C5D42046FFF77DFF626C22
:10033000D506C0D40028BED1636C23F4885323F0C3
:10034000020343F00203636423689A6822F0405278
:100350009A609A6842F080529A60624B624A1B68C7
:10036000B3FBF2F20A2353430093009B002BA1D06E
:10037000009B013BF8E71846AFE793420CBF0191A1
:1003800001902CE0626C22F0220242F020026264B2
:10039000A26C42F00102A26452E022F480526DE0AD
:1003A0004FF4E0726AE04FF4307267E04FF480720D
:1003B00064E04FF4707261E04FF4A0725EE0636C31
:1003C00023F0120343F010036364012085E00192DF
:1003D000464A05E04649474A8B42CED10192464AF9
:1003E000996801F00301012902D11968CE070FD4E1
:1003F000019939B18E6806F00306012E02D1096811
:10040000C90705D49168666821F440313143916091
:10041000A16BA668E2690129E16841EA060118BFFB
:100420004FF4805541EA42312943656A012D07D1D5
:10043000002AA7D1A26A013A41EA424141F480313F
:10044000E26A012A1DD02A4DAB4203D005F5807522
:10045000AB42A2D1B2F5307FA2D0B2F5807FA2D05C
:10046000B2F5E07FA2D0B2F58A5FA2D0B2F5845F88
:10047000A2D0B2F5865F08BF4FF4C072256B294346
:1004800011439A6812F00C0F0BD1DA68A56922F4B7
:10049000804222F00202DA60626B520042EA853248
:1004A0001143DD68154A2A4011432269D960012AA7
:1004B00005BF196B226A1A6B02F1FF3206BF21F0E9
:1004C0000F010A4322F00F021A630023A364636C36
:1004D00023F0030343F00103636416B070BD00BF53
:1004E000000100500C00002040420F0000030050AB
:1004F00000040050000500500007005007C0F0FF46
:10050000F0B597B00023009390F84030012B0546DA
:1005100000F063812B68CE689A680120520785F845
:10052000400000F1558148680C6804284FF006022D
:1005300031D842431F6B1F20904027EA000004FA85
:1005400002F202431A639A6812F00C0F62D1092C6E
:100550004FEA44028F6846D9224498691E3A4FF008
:10056000070E0EFA02FE20EA0E0007FA02F202431C
:100570009A61DA68C2F3C10E4A694FEA4E0E02FA76
:100580000EFE0A69013A4FEA846C032A73D8DFE849
:1005900002F037515C6709280BD842435F6B1E3A63
:1005A0001F20904027EA000004FA02F202435A6337
:1005B000C9E70E280BD842439F6B3C3A1F2090405E
:1005C00027EA000004FA02F202439A63BBE74243BF
:1005D000DF6B5A3A1F20904027EA000004FA02F22B
:1005E0000243DA63AFE7586922444FF0070E0EFA70
:1005F00002FE20EA0E0007FA02F202435A61B8E74F
:100600001A6E834F174047EA0C0242F0004242EA5A
:100610000E021A669A6802F00302012A40F0DF8097
:100620001A68D70740F1DB800020002385F84030AE
:1006300017B0F0BD5A6E764F174047EA0C0242F0F1
:10064000004242EA0E025A66E4E79A6E7048104091
:1006500040EA0C0242F0004242EA0E029A66D9E7F2
:10066000D86E6B4A024042EA0C0242F0004242EA73
:100670000E02DA66CEE71A6E02F0F842624502BF59
:100680001A6E22F000421A665A6E02F0F842944541
:1006900002BF5A6E22F000425A669A6E02F0F84289
:1006A000944502BF9A6E22F000429A66DA6E02F01A
:1006B000F8429445AED1DA6E22F00042D9E7D3F881
:1006C000B0200121A14022EA0102C3F8B020B3F119
:1006D000A04F1ED04F49504A5048834208BF0A4697
:1006E000102C18D1916811F4000F9DD1B3F1A04FD7
:1006F0004A491CD1019124E0601C596900EB40007B
:100700000722824021EA020106FA00F20A435A61F6
:10071000DDE7404AE4E7112C03D1916811F0807FB6
:10072000E3E7122C80D1916811F4800FDDE78B4252
:1007300002D14FF0A041DDE739493A488B422BD135
:100740000190996801F00301012902D11968C807D5
:1007500038D4019939B1886800F00300012802D12A
:100760000968C9072ED4102C1AD1B3F1A04F7FF419
:100770005BAF936843F4000393602B4B2B4A1B68D9
:10078000B3FBF2F20A2353430093009B002B3FF488
:100790004BAF009B013BF7E7834218BF0021A9E75D
:1007A000112C08D1B3F1A04F7FF43EAF936843F012
:1007B0008073936038E7122C7FF436AF936843F46C
:1007C0008003F6E76B6C43F020036B6401202CE799
:1007D0006B6C43F020036B6427E7022028E7012EAF
:1007E0007FF46DAFD3F8B020A6401643092CC3F8B0
:1007F000B0608E6880D904EB440299691B3A0720E7
:10080000904021EA000106FA02F20A439A615EE78B
:1008100000F0FF830003005000070050000100506B
:1008200000040050000500500C00002040420F0062
:10083000F0B50268414BB2F1A04F97B001D10193DE
:1008400009E09A4202D14FF0A043F8E73C4B3D4CFF
:100850009A4230D10194019C002C58D090F840303D
:10086000012B56D0012380F8403093685B0743D4B6
:10087000A3685F0740D4B2F1A04F20D0324D334B74
:100880002E4EB24208BF2B460D68D5B14E68D3F844
:1008900008E03746466B47EA46362EF460473E434B
:1008A0009E60966806F00306012E34D11268D607C2
:1008B00031D5002325E0A24218BF0023BFE7224B19
:1008C000E2E7996821F460419960916801F00301C1
:1008D000012902D11268D107EBD4A26802F0030209
:1008E000012A02D12268D207E3D49A6822F4716205
:1008F00022F00F029A60DCE7436C43F0200343646C
:100900000123002280F84020184617B0F0BD0123D3
:10091000FAE70223F8E7A26802F00302012A02D1F3
:100920002268D407C5D49A68896822F471620D439D
:1009300022F00F0215439D60BBE700BF000100508D
:100940000004005000050050000300500007005054
:10095000074AD36823F4E0631B041B0C43F0BF6316
:10096000000243F4003300F4E0600343D3607047B7
:1009700000ED00E0174B30B5DC68C4F30224C4F18D
:100980000703251D042B28BF0423062D4FF0010566
:1009900005FA03F303F1FF338CBF033C0024194035
:1009A000A14005FA04F4013C2240002842EA010279
:1009B0004FEA0212AFBF00F1604000F00F00064B9B
:1009C000D2B2A5BF00F56140D2B21A5480F800231C
:1009D00030BD00BF00ED00E014ED00E0420901234E
:1009E00000F01F0003FA00F0014B43F822007047AB
:1009F00000E100E02DE9F74FD1F80080DFF8909199
:100A0000614A002338FA03F402D103B0BDE8F08F45
:100A10004FF0010E0EFA03FE18EA0E0600F0A68053
:100A20004C6824F01007022F16D14FEAD30A00EBCE
:100A30008A0A03F0070BDAF820504FEA8B0B4FF0CD
:100A40000F0C0CFA0BFC25EA0C0C0D6905FA0BF5E2
:100A500045EA0C05CAF820504FEA430A0325D0F8AE
:100A600000B005FA0AF5ED4304F0030C0BEA050BA0
:100A70000CFA0AFC013F4CEA0B0C012FC0F800C035
:100A800011D8876807EA050BCF6807FA0AFC4CEA19
:100A90000B078760476827EA0E0EC4F300179F40D4
:100AA00047EA0E074760C7683D408F6807FA0AF7B4
:100AB0003D43C560E50059D5D9F8185045F001050A
:100AC000C9F81850D9F8185023F0030707F18047E8
:100AD00005F0010507F58037019503F0030C019D32
:100AE000BD684FEA8C0C4FF00F0E0EFA0CFEB0F101
:100AF000904F25EA0E0E3BD0244DA8423AD005F582
:100B00008065A84238D005F58065A84236D005F545
:100B10008065A84234D005F58065A84232D005F53D
:100B20008065A84214BF0725062505FA0CF545EA9D
:100B30000E05BD601568F74314F4803F0CBF3D40BF
:100B400035431560556814F4003F0CBF3D403543F4
:100B50005560956814F4801F0CBF3D403543956087
:100B6000D568A40254BF3D403543D560013349E701
:100B70000025DAE70125D8E70225D6E70325D4E7E3
:100B80000425D2E70525D0E7000401400004004811
:100B9000001002400AB18161704781627047000015
:100BA0002DE9F347054618B9012002B0BDE8F087EA
:100BB0000368DF0711D42B689E0700F188802B683B
:100BC0001C0700F1FC802B68580700F14581AA69D9
:100BD000002A40F0DC810020E7E7BD4C636803F0A9
:100BE0000C03042B0AD0636803F00C03082B19D103
:100BF000636803F4C033B3F5803F13D14FF400337F
:100C000093FAA3F2216893FAA3F3B3FA83F303F000
:100C10001F03012202FA03F30B42CCD06B68002BB6
:100C2000C9D1C1E76B68B3F5803F1ED1236843F497
:100C300080332360FFF7F2FA4FF400368046012735
:100C400096FAA6F3226896FAA6F3B3FA83F303F0B2
:100C50001F0307FA03F31342ADD1FFF7DFFAA0EB4E
:100C600008006428ECD903209FE70BBB236823F41A
:100C700080332360236823F480232360FFF7CEFAB8
:100C80004FF400368046012796FAA6F3226896FABA
:100C9000A6F3B3FA83F303F01F0307FA03F3134237
:100CA00089D0FFF7BBFAA0EB08006428ECD9DAE79B
:100CB000B3F5A02F236803D143F480232360B5E765
:100CC00023F480332360236823F48023B1E7804C2E
:100CD000636813F00C0F0AD0636803F00C03082B51
:100CE00025D1636803F4C033B3F5004F1FD102234D
:100CF00093FAA3F2216893FAA3F3B3FA83F303F010
:100D00001F03012202FA03F30B4203D0EB68934264
:100D10007FF44AAF2168F82393FAA3F3B3FA83F27E
:100D20002B69934021F0F8021343236047E7EA68F8
:100D300001260AB396FAA6F3B3FA83F303F18453B8
:100D400003F584139B0002271E60FFF767FA8046B5
:100D500097FAA7F3226897FAA7F3B3FA83F303F09D
:100D60001F0306FA03F31342D4D1FFF757FAA0EB9F
:100D700008000228ECD976E796FAA6F3B3FA83F3D3
:100D800003F1845303F584139B0002271A60FFF7D5
:100D900045FA804697FAA7F3226897FAA7F3B3FAC1
:100DA00083F303F01F0306FA03F313423FF407AF84
:100DB000FFF734FAA0EB08000228EBD953E76A6981
:100DC000434E444901241AB394FAA4F3B3FA83F3CB
:100DD0000B449B0002271C60FFF720FA804697FA1D
:100DE000A7F397FAA7F397FAA7F3726A97FAA7F30C
:100DF000B3FA83F303F01F0304FA03F313427FF4FF
:100E0000E2AEFFF70BFAA0EB08000228E7D92AE7C9
:100E100094FAA4F3B3FA83F30B449B0002271A60FD
:100E2000FFF7FCF9804697FAA7F397FAA7F397FA2A
:100E3000A7F3726A97FAA7F3B3FA83F303F01F03D9
:100E400004FA03F313423FF4BEAEFFF7E7F9A0EB59
:100E500008000228E7D906E71D4CE369D90034D41D
:100E6000E36943F08053E361E36903F08053019346
:100E7000019B0126184F3B68DA052FD5AB68012B83
:100E80003DD1236A43F001032362FFF7C7F902272C
:100E90008246B9464FF0010897FAA7F397FAA7F3ED
:100EA000002B6CD0226A99FAA9F3B3FA83F303F00A
:100EB0001F0308FA03F3134258D0002E3FF487AE05
:100EC000E36923F08053E36181E60026D2E700BFA7
:100ED0000010024020819010007000403B6843F4F5
:100EE00080733B60FFF79AF980463B68DB05C5D409
:100EF000FFF794F9A0EB08006428F6D9B3E63BBBF2
:100F0000236A23F001032362236A23F0040323628C
:100F1000FFF784F902278246B9464FF0010897FA95
:100F2000A7F397FAA7F373B3226A99FAA9F3B3FA6E
:100F300083F303F01F0308FA03F31342BDD0FFF756
:100F40006DF941F28833A0EB0A009842E7D98AE6AE
:100F5000052B236A03D143F00403236291E723F0B6
:100F600001032362236A23F004038DE7FFF756F998
:100F700041F28833A0EB0A0098428DD973E697FAC4
:100F8000A7F3626A8FE797FAA7F3626ACDE7444C4A
:100F9000636803F00C03082B3FF406AE022A4FF0FF
:100FA000807358D193FAA3F3B3FA83F303F1845314
:100FB00003F584139B0000221A60FFF72FF94FF00E
:100FC00000778046012697FAA7F3226897FAA7F3DD
:100FD000B3FA83F303F01F0306FA03F3134233D18A
:100FE000E36A6A6A23F00F031343E36262682B6AC1
:100FF000E96922F476120B43134363604FF0807368
:1010000093FAA3F3B3FA83F303F1845303F5841340
:101010009B004FF000751E60FFF700F901260746A0
:1010200095FAA5F3226895FAA5F3B3FA83F303F0D2
:101030001F0306FA03F313427FF4CDADFFF7EEF87A
:10104000C01B0228ECD90EE6FFF7E8F8A0EB080079
:101050000228B8D907E693FAA3F3B3FA83F303F1AE
:10106000845303F584139B0000221A60FFF7D6F81F
:101070004FF000750746012695FAA5F3226895FA08
:10108000A5F3B3FA83F303F01F0306FA03F3134245
:101090003FF4A1ADFFF7C2F8C01B0228ECD9E2E58E
:1010A0000010024011494B6803F00C02082A1AD1C3
:1010B0004FF4701292FAA2F20F20B2FA82F2C96AC9
:1010C00090FAA0F0B0FA80F001F00F0103F4701371
:1010D000D340C140064A0748415C0748B0FBF1F1E4
:1010E000D05C484370470448704700BF001002407E
:1010F000102F0008202F000800127A002DE9F0417F
:101100000D46044610B90120BDE8F0814C4A136831
:1011100003F007038B422ED32268910736D4D207FF
:101120003CD4474A136803F007039D4275D32268F5
:10113000444D12F0040F7CD1130706D56B68226969
:1011400023F4605343EAC2036B60FFF7ABFF6B68A5
:10115000F02292FAA2F2B2FA82F203F0F003D34044
:10116000394AD35CD840394B1860002001F0ACFDFF
:101170000020BDE8F081136823F007030B431360E0
:10118000136803F007039942BDD1C5E72D49A06854
:101190004B6823F0F00303434B60C0E76268294EBD
:1011A000012A27D14FF4003393FAA3F1316893FA5F
:1011B000A3F3B3FA83F303F01F0302FA03F30B4222
:1011C000A1D0736823F003031A437260FFF726F877
:1011D00041F2883807467368626803F00C03B3EB8A
:1011E000820F9ED0FFF71AF8C01B4045F3D90320A9
:1011F000BDE8F081022A0CBF4FF00073022393FA7E
:10120000A3F1306893FAA3F3B3FA83F303F01F0357
:10121000012101FA03F30342D2E7136823F0070325
:101220002B431360136803F007039D427FF46BAFF9
:101230007DE76B68E16823F4E0630B436B607BE759
:101240000020024000100240872F00080C00002000
:10125000084B4FF4E0625B6892FAA2F2B2FA82F2B3
:1012600003F4E063D340044AD35C044A1068D840D6
:10127000704700BF00100240972F00080C000020AC
:10128000084B4FF460525B6892FAA2F2B2FA82F213
:1012900003F46053D340044AD35C044A1068D84036
:1012A000704700BF00100240972F00080C0000207C
:1012B0000F2303600B4B5A6802F0030242605A6826
:1012C00002F0F00282605A6802F4E062C2605B6879
:1012D000DB0803F4E0630361034B1B6803F00703BF
:1012E0000B607047001002400020024003682DE9A7
:1012F000F347DF03044623D59B4DEB69DE0000F185
:10130000D780EB6943F08053EB61EB6903F08053C6
:101310000193019B0126954F3B68D80540F1CA8097
:101320002B6A13F4407340F0DA802B6A626823F46E
:10133000407313432B621EB1EB6923F08053EB61C2
:101340002068C30706D5884AA168136B23F00303FE
:101350000B431363870706D5834AE168136B23F4B5
:1013600040330B431363460706D57F4A2169136B4D
:1013700023F440230B431363850606D57A4AE169BB
:10138000136B23F010030B431363810306D5764AD6
:10139000616D536823F480030B435360420606D506
:1013A000714A216A136B23F020030B431363430339
:1013B00006D56D4A616A136B23F040030B43136338
:1013C000070706D5684A6169136B23F440130B4382
:1013D0001363C60606D5644AA169136B23F4400360
:1013E0000B431363850506D55F4A216B536823F4CD
:1013F00000030B435360010606D55B4AA16AD36A1A
:1014000023F4F8730B43D362C20506D5564AE16A4A
:10141000D36A23F478530B43D362C30406D5524AEC
:10142000616B136B23F480730B431363870406D53E
:101430004D4A216C136B23F400730B431363C602F4
:1014400006D5494AA16B136B23F080730B431363DA
:10145000850206D5444AE16B136B23F000730B43FE
:101460001363410206D5404A616C136B23F4806319
:101470000B431363020206D53B4AA16C136B23F4A2
:1014800000630B431363C30106D5374AE16C136B4A
:1014900023F400530B43136310F000701CD0324A46
:1014A000216D136B23F400430B431363002013E0FF
:1014B000002630E73B6843F480733B60FEF7AEFEE6
:1014C00080463B68D9053FF52BAFFEF7A7FEA0EBA2
:1014D00008006428F5D9032002B0BDE8F0876268EF
:1014E00002F4407293423FF420AF296A4FF48033F4
:1014F00021F4407093FAA3F2DFF874E0B2FA82F2BA
:10150000724492000127176093FAA3F3B3FA83F3AE
:1015100073449B0000221A60CA0728627FF505AF5A
:10152000FEF77CFE4FF002088246C14698FAA8F307
:1015300098FAA8F3A3B12A6A99FAA9F3B3FA83F344
:1015400003F01F0307FA03F313427FF4EEAEFEF736
:1015500065FE41F28833A0EB0A009842E6D9BAE76B
:1015600098FAA8F36A6AE7E70010024000700040AA
:101570000081901070470368DA6842F00102DA6077
:101580001A6842F001021A600020704770477047E5
:101590007047704703681A69910710B504460FD564
:1015A000DA6892070CD56FF002021A619B6901227A
:1015B0009907027700F08580FFF7E9FF0023237782
:1015C00023681A69520710D5DA6850070DD56FF0F5
:1015D00004021A619B69022213F4407F227720469D
:1015E00075D0FFF7D4FF0023237723681A6911070A
:1015F0000FD5DA6812070CD56FF008021A61DB69A3
:1016000004229B072277204667D0FFF7C0FF002304
:10161000237723681A69D00610D5DA68D1060DD56C
:101620006FF010021A61DB69082213F4407F227701
:10163000204658D0FFF7ABFF0023237723681A69B1
:10164000D20708D5DA68D00705D56FF001021A6114
:10165000204601F025FA23681A69110608D5DA68D0
:10166000120605D56FF080021A61204600F0C7F817
:1016700023681A69D00508D5DA68110605D56FF414
:1016800080721A61204600F0BBF823681A6952067E
:1016900008D5DA68500605D56FF040021A61204679
:1016A000FFF777FF23681A69910622D5DA68920658
:1016B0001FD56FF0200220461A61BDE8104000F0EF
:1016C0009DB8FFF763FF2046FFF762FF76E7FFF75D
:1016D0005DFF2046FFF75CFF85E7FFF757FF2046D9
:1016E000FFF756FF93E7FFF751FF2046FFF750FF44
:1016F000A2E710BD324A0368904212D0B0F1804F89
:101700000FD0A2F5943290420BD002F58062904245
:1017100007D002F59632904203D002F5E052904293
:1017200015D14A6823F070031343254A90421DD017
:10173000B0F1804F1AD0A2F59432904216D002F543
:101740008062904212D002F5963290420ED01D4A2D
:1017500090420BD002F58062904207D002F5806281
:10176000904203D002F50062904203D1CA6823F48C
:10177000407313434A6923F08003134303608B686B
:10178000C3620B6883620E4B984213D003F500636B
:1017900098420FD003F5406398420BD003F5806365
:1017A000984207D003F58063984203D003F50063A5
:1017B000984201D10B69036301234361704700BF65
:1017C000002C01400040014010B50446A0B190F843
:1017D0003D3003F0FF021BB980F83C20FFF7CAFE42
:1017E000022384F83D302068211DFFF783FF012389
:1017F00084F83D30002010BD012010BD70477047B7
:101800007047000038B5044605682169A268C369BD
:1018100028680A4361690A4377491A4301400A4329
:101820002A606A68E168206A22F440520A436A60CA
:10183000A968A26921F4306102430A43AA606F4A91
:10184000954212D102F558426D49126B02F0030223
:10185000B3F5004F8A5C66D0082A19D8DFE802F099
:10186000C2929E18A9181818AC00664A954224D155
:1018700002F5E632126B02F44032B2F5803F00F01E
:10188000A08007D8002A00F0AA80B3F5004F76D0D8
:10189000012038BDB2F5003F00F09980B2F5403F1D
:1018A000F3D1B3F5004F79D16068430803F57403B1
:1018B00003F51053B3FBF0F354E0534A95420ED1B5
:1018C00002F5E432126B02F44022B2F5802F78D098
:1018D000D8D9B2F5002F7AD0B2F5402FE0E74B4AC5
:1018E00095420ED102F5E232126B02F44012B2F5CB
:1018F000801F66D0C6D9B2F5001F68D0B2F5401F70
:10190000CEE7434A9542C0D102F5E032126B02F4B1
:101910004002B2F5800F54D0B4D9B2F5000F56D0C2
:10192000B2F5400FBCE7082A29D801A353F822F0EA
:101930005519000879190008A91800087F1900082E
:10194000C91900087F1900087F1900087F190008CD
:10195000D5190008FFF77CFC61684A0802EB4003D8
:10196000B3FBF1F39BB2002023F00F022168C3F315
:1019700042031343CB6038BDFFF782FCECE7012044
:101980000023F1E7FFF77CFC636800EB5300B0FB3A
:10199000F3F01A4B80B2D860002038BD626853085B
:1019A00003F5F40303F59053B3FBF2F39BB2EB6042
:1019B000F2E7FFF777FB17E06268530803F500438F
:1019C000F2E7B3F5004FF4D1FFF76CFBC4E7B3F5D2
:1019D000004FF1D16068430803F580336AE7B3F53F
:1019E000004FB7D0FFF734FC636800EB5300B0FB47
:1019F000F3F080B2E860CFE7F369FFEF0038014011
:101A0000302F00080044004000480040004C0040D7
:101A100000500040436ADA0710B506D50168846AB1
:101A20004A6822F4003222434A609C0706D50168C6
:101A3000C46A4A6822F4803222434A60590706D5B4
:101A40000168046B4A6822F4802222434A601A0724
:101A500006D50168446B4A6822F4004222434A607A
:101A6000DC0606D50168846B8A6822F48052224322
:101A70008A60990606D50168C46B8A6822F4005210
:101A800022438A605A060FD50168046C4A6822F422
:101A900080122243B4F5801F4A6005D14A68446C25
:101AA00022F4C00222434A601B0606D50268816CFC
:101AB000536823F400230B43536010BD2DE9F0411C
:101AC000069D04460F46164698462168CA6937EABD
:101AD00002030CBF01220022B24202D00020BDE866
:101AE000F0816B1CF2D09DB923681A6822F4D07281
:101AF0001A609A6822F001029A60202384F8693003
:101B000084F86A30002384F868300320BDE8F0814F
:101B1000FEF784FBA0EB08008542D6D2E4E773B55C
:101B200004460026C666FEF779FB23681B681A0781
:101B3000054617D423681B685B070AD56FF07E4300
:101B4000009300222B464FF480012046FFF7B6FF9A
:101B5000A0B92023002084F8693084F8680084F854
:101B60006A300CE06FF07E430093324603464FF438
:101B700000112046FFF7A2FF0028DBD0032002B0AF
:101B800070BD10B5044660B390F8693003F0FF02F1
:101B90001BB980F8682001F067F82268242384F8D4
:101BA0006930136823F0010313602046FFF72AFE13
:101BB000012816D0636A13B12046FFF72BFF236874
:101BC0005A6822F490425A609A6822F02A029A6077
:101BD0001A6842F0010220461A60BDE81040FFF783
:101BE0009EBF012010BD08B500F0DEFB002008BD3F
:101BF00030B5B0F90840028A0B4690E8220085B063
:101C0000842C14BF0334002403A8019000942846B8
:101C100000F0FAFA01280CBF0398002005B030BD8F
:101C200008B5002808BF012000F00CFD002008BD09
:101C300000F1080343604FF0FF32C36003610023EB
:101C400082600360704700230361704743684B6004
:101C50009A688A609A6851609960036808610133E4
:101C6000036070470A68531C30B50AD103695A688B
:101C70004A6091608B6059600368086101330360BA
:101C800030BD00F108035C682568AA42EFD3234603
:101C9000F9E74168826803698A608268516059681F
:101CA000884208BF5A600022026118680138186033
:101CB000704700000A4B1B68013308D04FF05003F7
:101CC00083F31188BFF36F8FBFF34F8FFEE74FF0A1
:101CD000500383F31188BFF36F8FBFF34F8FFEE77D
:101CE0000400002006480068006880F3088862B697
:101CF00061B6BFF34F8FBFF36F8F00DF00BF0000EF
:101D000008ED00E0DFF80C00016841F470010160AB
:101D10007047000088ED00E04FF0807340F8043C0D
:101D2000074B40F80C3C21F001016FF0020340F832
:101D3000081C40F8202C40F8243C4438704700BF71
:101D4000B51C0008000000000000000000000000BA
:101D5000074B19680868B0E8F04F80F30988BFF3B3
:101D60006F8F4FF0000080F311887047AFF3008051
:101D7000AC1800204FF0500383F31188BFF36F8F2E
:101D8000BFF34F8F0A4A13680133012B13600DD143
:101D9000084B1B6813F0FF0F08D04FF0500383F37C
:101DA0001188BFF36F8FBFF34F8FFEE7704700BFFF
:101DB0000400002004ED00E0084A136843B94FF026
:101DC000500383F31188BFF36F8FBFF34F8FFEE78C
:101DD000013B13600BB983F31188704704000020A6
:101DE000EFF30980BFF36F8F154B1A681EF0100FC9
:101DF00008BF20ED108A20E9F04F10604DF8043D37
:101E00004FF0500080F31188BFF34F8FBFF36F8FF7
:101E100000F076FC4FF0000080F3118808BC1968D0
:101E20000868B0E8F04F1EF0100F08BFB0EC108A41
:101E300080F30988BFF36F8F704700BFAFF3008056
:101E4000AC18002008B54FF0500383F31188BFF39E
:101E50006F8FBFF34F8F00F0EBFA18B1034B4FF0C9
:101E600080521A60002383F3118808BD04ED00E05E
:101E7000064B4FF47A721B68B3FBF2F3044A013B42
:101E80001360044B07221A60704700BF0C0000204B
:101E900014E000E010E000E0314B324A13B519685D
:101EA000914208D14FF0500383F31188BFF36F8F35
:101EB000BFF34F8FFEE71A682B4B9A4208D14FF0C1
:101EC000500383F31188BFF36F8FBFF34F8FFEE78B
:101ED000264B1A78D2B20192FF221A701B78244A3C
:101EE000DBB28DF803309DF8033003F0500313701C
:101EF000204B07221A6000219DF80300000602F122
:101F0000FF3423D401B11A601A68120202F4E062AD
:101F10001A60019B154ADBB21370174B1A6842F422
:101F200070021A601A6842F070421A60FFF7A0FF50
:101F3000124B00221A60FFF7E5FE114A136843F0C6
:101F400040431360FFF7CEFEFFF7B4FE9DF8032079
:101F50005200D2B28DF8032001212246CCE700BF07
:101F600000ED00E071C20F4170C20F4100E400E0DB
:101F70002C0000203000002020ED00E004000020B4
:101F800034EF00E010B50F4B1A68824218D35C683A
:101F90001919884201BF41681846091959604468F7
:101FA00001198A4207D1084909688A421FBF51684E
:101FB0001268091941609842026018BF186010BD8C
:101FC0001346E1E7A4180020340000202DE9F04179
:101FD000044600F025FA3E493E4D0B680BBB3E4AD5
:101FE00056071FBFD01D20F0070002F5C3531B1A70
:101FF00014BF02464FF4C3531344083B23F00703B6
:10200000364E0B6000207060326058601860981A7D
:102010001360334B50601860324B18604FF0004330
:102020002B602F68274216D1002C41D004F1080301
:1020300058071CBF23F00703083363B1294A166809
:10204000B342904607D8254A15686868834204D889
:1020500009688D4207D100242AE02C68002CF7D0B3
:102060002A462546F1E7296814681160C21A102A29
:102070000FD9E818410708D04FF0500383F31188B7
:10208000BFF36F8FBFF34F8FFEE742606B60FFF7C8
:1020900079FF13496B680868F61A1F4386424FF0B0
:1020A0000003C8F8006038BF0E6008346F602B6012
:1020B00000F050FA630708D04FF0500383F3118803
:1020C000BFF36F8FBFF34F8FFEE72046BDE8F0816F
:1020D000340000209818002038000020A4180020A8
:1020E000A01800209C18002010B5044670B3184AB0
:1020F00050F8043C1268134208D14FF0500383F3A8
:102100001188BFF36F8FBFF34F8FFEE750F8081CA5
:1021100041B14FF0500383F31188BFF36F8FBFF3CA
:102120004F8FFEE723EA020340F8043C00F078F901
:10213000084A54F8043C1168A4F108000B441360E9
:10214000FFF720FFBDE8104000F004BA10BD00BF4B
:10215000981800209C180020064A13681968064B3E
:1021600019B94FF0FF321A6070471268D268D2680E
:102170005268F8E7B018002088190020F8B51B4B0A
:102180001B4E1D680446306804300F46FFF781FD82
:10219000334640B93168174EC96A32680120884019
:1021A00022EA00023260621C07D137B11968124876
:1021B0000431BDE8F840FFF749BD2C441A68A54238
:1021C000546007D90D4A10681968BDE8F840043119
:1021D000FFF748BD0A4A106819680431FFF742FD4D
:1021E000084B1A68944238BF1C60F8BDD019002013
:1021F000AC18002058190020A8190020B41800209D
:10220000B0180020881900202DE9F84F4FEA820A03
:10221000804650460F4699460B9EFFF7D7FE05466F
:10222000002800F096805420FFF7D0FE04460028D6
:1022300000F08C80AAF1040A056355447B1E25F04A
:10224000070A00F134020F37597802F8011B13F81E
:10225000011F09B1BB42F7D10A9D062D28BF0625F3
:102260004FF0000B271DE5626564384684F843B0E3
:10227000C4F848B0FFF7E7FCC5F1070504F1180002
:10228000FFF7E1FCC4F84CB02461A561646284F8F6
:1022900050B04A4641465046FFF73EFD206006B129
:1022A0003460FFF767FD324B324E1A68DFF8F0807A
:1022B00001321A603568002D4ED134601B68012B45
:1022C0001DD108EB05001435FFF7B2FC8C2DF8D1B9
:1022D000DFF8D090284D4846FFF7AAFC2846FFF7C4
:1022E000A7FC2648FFF7A4FC2548FFF7A1FC2548DA
:1022F000FFF79EFC244BC3F80090244B1D60244A3A
:1023000024491368086801331360E26A012505FA5D
:1023100002F3034314200B6000FB02803946FFF7F1
:1023200095FCFFF749FD1C4B1B6863B13368DA6A03
:10233000E36A9A4207D2194B4FF080521A60BFF3FA
:102340004F8FBFF36F8F2846BDE8F88F2846FFF701
:10235000CBFE4FF0FF35F6E70F4B1B68002BCED1BD
:102360003368DA6AE36A9A4298BF3460C7E700BF0D
:1023700044190020AC18002070190020901900208A
:10238000BC190020A8190020B0180020B4180020A3
:102390005419002058190020A419002004ED00E071
:1023A000B81800205C19002013B5174B01930024C6
:1023B00000942346802215491548FFF725FF012880
:1023C00014D14FF0500383F31188BFF36F8FBFF325
:1023D0004F8F104B4FF0FF321A600F4B18600F4BAE
:1023E0001C6002B0BDE81040FFF756BD013008D1B7
:1023F0004FF0500383F31188BFF36F8FBFF34F8FFC
:10240000FEE702B010BD00BF84190020342F000881
:102410008D26000888190020A4190020D01900205A
:10242000024A136801331360704700BF501900203F
:102430002DE9F84F3C4B1B68002B53D13B4B1C68DC
:1024400001341C60BCB93A4B1A68126842B14FF0B3
:10245000500383F31188BFF36F8FBFF34F8FFEE7F5
:10246000344A1968106818601160334A13680133E0
:102470001360FFF771FE314D314F2B689C424FF0D6
:10248000000B3ED3DFF8A880DFF8C490D8F8002016
:10249000126872BB4FF0FF322A6032E006F1040A84
:1024A0005046FFF7F6FBB16A19B106F11800FFF7C5
:1024B000F0FBF06AD9F80030012202FA00F119436A
:1024C000204BC9F800104FF0140E51460EFB00309F
:1024D000FFF7BCFB3868F16AC26A914228BF4FF02F
:1024E000010BD3E7184A1368013313604FF0000B58
:1024F00011E0D8F80020D268D66871688C42CDD23D
:1025000029603A680F4BD16A14224A439A58022A2A
:1025100028BF4FF0010B0D4A1268002A18BF4FF078
:10252000010B5846BDE8F88F50190020D019002043
:10253000B0180020B41800208C1900208819002041
:10254000AC180020B81800204C190020D419002025
:10255000581900202DE9F843314C236843B94FF056
:10256000500383F31188BFF36F8FBFF34F8FFEE7E4
:10257000FFF700FC2368013B236024682CB1002492
:10258000FFF71AFC2046BDE8F883264B1B68002B9A
:10259000F5D0DFF8A890244FDFF8A480D9F80030F8
:1025A000E3B90CB1FFF7D8FD204D2C6844B1204EA3
:1025B0000127FFF73DFF00B13760013CF9D12C60E6
:1025C0001B4B1B68002BDAD01A4B4FF080521A605D
:1025D000BFF34F8FBFF36F8F0124D1E7D9F80C30D1
:1025E000DC68261D04F11800FFF753FB3046FFF7A7
:1025F00050FBE26A3968012505FA02F314200B4307
:1026000000FB028031463B60FFF720FB0A4BE26A89
:102610001B68DB6A9A4224BF054B1D60BEE700BF02
:102620005019002044190020581900204C1900208E
:10263000D419002004ED00E0AC180020901900200F
:10264000B818002008B540B90E4B4FF080521A6000
:10265000BFF34F8FBFF36F8F08BD0B4B196841B1AC
:102660004FF0500383F31188BFF36F8FBFF34F8F89
:10267000FEE7FFF7D5FEFFF781FDFFF76BFF0028B0
:10268000E2D008BD04ED00E05019002008B5174E57
:10269000174C236863B9174B1B68012BF8D9164BED
:1026A0004FF080521A60BFF34F8FBFF36F8FEFE789
:1026B000FFF7B6FE3568FFF74DFF002DE9D0FFF7B5
:1026C00059FBF368DD68281DFFF7E3FA0B4A13682E
:1026D000013B13602368013B2360FFF76DFB286B10
:1026E000FFF702FD2846FFF7FFFCD2E7BC190020E8
:1026F00048190020B818002004ED00E0441900201B
:10270000174B1A68174B10B512B101221A6010BD91
:102710001A60154B1B68B3FA83F3DBB2C3F11F03D6
:10272000142212495A4388188C5844B94FF0500368
:1027300083F31188BFF36F8FBFF34F8FFEE74468B9
:102740000832646844600A44944204BF626842608C
:10275000142202FB03135B68DA68054BD6E700BF5F
:1027600050190020D419002058190020B818002052
:10277000AC18002008B50120FFF752FAFBE7000073
:1027800008B5034C2378002BFDD100F0C5F9F9E71B
:10279000D919002008B50120FFF742FAFBE708B578
:1027A0000120FFF73DFAFBE708B50120FFF738FAF3
:1027B000FBE708B50120FFF733FAFBE708B5012076
:1027C000FFF72EFAFBE730B5A7B02822002106A8B4
:1027D00000F044FB1422002101A800F03FFB582226
:1027E000002110A800F03AFB0123099310230A935B
:1027F0004FF4004302240D9306A84FF4E0130E9308
:1028000006940C94FEF7CCF90F2300250193214682
:102810004FF4806301A80493029403950595FEF795
:102820006DFC8223109310A84FF4807313951A93B4
:10283000FEF75CFD27B030BD80B5A8B0FDF7D0FC39
:10284000FFF7C1FF1422002122A800F007FB854BEF
:102850005A6942F400225A615A6902F40022009235
:10286000009A5A6942F480025A615A6902F480025D
:102870000192019A5A6942F400325A615A6902F48B
:1028800000320292029A5A6942F480225A615B69CC
:1028900003F48023039300224FF4F9514FF090404A
:1028A000039BFEF777F900224FF460716E48FEF744
:1028B00071F94FF400530024229322A96B4B6A480C
:1028C000239301262494FEF795F8202322A94FF0A4
:1028D000904002252293239624942594FEF78AF8AB
:1028E0004FF4004322A96248229324952394FEF7D3
:1028F00081F8402322A95C4822930327249523943E
:10290000FEF778F84FF4607322A957482293239674
:1029100024952597FEF76EF84FF4F85322A94FF04F
:1029200090402293239624952597FEF763F851480B
:10293000514A524D84604FF4164380E80C000C233A
:102940004361C46004618461C46104624462FFF74E
:1029500018F91822214622A81D941E941F9400F0F5
:102960007DFA4FF0A04385E81800284604236B61E8
:10297000EE622E62AC602C61EC616C622C63EC60E8
:102980006C63AC61AC63FDF787FC1DA928461D9400
:10299000FDF74EFF28463A4D2396062322A922939F
:1029A0002594249426942794FDF7AAFD0FCD04AF17
:1029B0000FC72E46214656F8043B3B6004A8FFF79C
:1029C00017F9304B18600FCE09AF0FC733683B6063
:1029D000214609A8FFF70CF92B4B05F118071860E1
:1029E0000FCF0EAE0FC63B68336021460EA8FFF72F
:1029F000FFF8264B05F12C0718600FCF13AE0FC65A
:102A00003B683360214613A8FFF7F2F8204B05F12D
:102A1000400718600FCF18AE0FC63B6833602146E1
:102A200018A8FFF7E5F81B4B05F1540718600FCF06
:102A30001DAE0FC63B68336021461DA8FFF7D8F8CE
:102A4000154B683518600FCD22AE0FC62B6833606A
:102A5000214622A8FFF7CCF8104B1860FFF7C3F807
:102A6000FEE700BF001002400008004800002110EF
:102A700000040048481A002000440040E8190020E3
:102A8000842E0008E0190020B81A0020E419002064
:102A90003C1A0020441A0020BC1A0020401A0020D2
:102AA0000268034B9A4201D1FDF7ACBB704700BFEF
:102AB000002C01400E4B10B51C787CB901224FF45C
:102AC00080714FF09040FEF765F822464FF4807118
:102AD0004FF09040BDE81040FEF75CB800224FF484
:102AE00080714FF09040FEF755F80122EEE700BFED
:102AF000D819002008B500224FF480714FF09040A3
:102B0000FEF748F800224FF480714FF09040BDE886
:102B10000840FEF73FB8000010B5154C23880A2B7B
:102B20004FF0010208D920214FF09040FEF732F813
:102B3000104B01221A7010BD4FF400710E48FEF7C1
:102B400029F8FFF7B7FFB4F90000FFF769F8FFF7BE
:102B5000D1FF094800224FF40071FEF71BF8B4F9C9
:102B60000000BDE81040C0F10A00FFF759B800BFEF
:102B700008000020DA190020000800480E4B07B5B5
:102B80009A6942F001029A619A6902F00102009288
:102B9000009ADA6942F08052DA61DB6903F080530F
:102BA000019300220F216FF00100019BFDF7E2FE6F
:102BB00003B05DF804FB00BF0010024030B51422E2
:102BC0008BB0044600210DEB020000F047F92368AA
:102BD000B3F1A04F42D103F1704303F50433032452
:102BE0005A691F4842F080525A615A6902F0805275
:102BF0000192019A5A6942F400225A615A6902F418
:102C000000220292029A5A6942F400325A615A69C9
:102C100002F400320392039A5A6942F480225A6104
:102C20005B69069403F480230493049B05A90F2396
:102C300005930025FDF7DEFE012305A94FF0904026
:102C4000059306940795FDF7D5FE4FF4006305A99B
:102C50000448059306940795FDF7CCFE0BB030BDF4
:102C6000000800480004004810B5044688B014224B
:102C7000002103A800F0F2F82268124B9A421ED1FC
:102C800003F5E63303A9DA6942F40032DA61DA695E
:102C900002F400320192019A5A6942F400325A61F8
:102CA0005B6903F400330293029B0C23039302231A
:102CB00004934FF0904007230793FDF79BFE08B065
:102CC00010BD00BF0044004010B5014688B000228E
:102CD0001920FDF74FFE1920FDF780FE144B154C0F
:102CE0009A6942F400629A619B6903F4006302935B
:102CF00001A903A8029BFEF7DBFAFEF7C1FA0E4B0F
:102D0000236040F2E733E3600C4BB0FBF3F0013893
:102D10000023606020462361A360FEF755FD20B9C3
:102D20002046FEF728FC08B010BD0120FBE700BFDD
:102D300000100240C01A0020002C014040420F0049
:102D40007047FEE7FEE7FEE7FEE770470148FEF743
:102D500021BC00BFC01A00201549D1F8883043F4C7
:102D60007003C1F88830134B1A6842F001021A60F0
:102D70005868114A02405A601A6822F0847222F49C
:102D800080321A601A6822F480221A605A6822F48B
:102D9000FE025A60DA6A22F00F02DA62186B074A02
:102DA00002401A6300229A604FF000638B60704704
:102DB00000ED00E0001002400CC07FF8CCFC00FFEA
:102DC000DFF834D0002103E00C4B5B584350043152
:102DD0000B480C4B42189A42F6D30B4A02E00023F0
:102DE00042F8043B094B9A42F9D3FFF7B5FF00F0D4
:102DF00011F8FFF721FDFEE700000120A82F0008D1
:102E0000000000201000002010000020001B002007
:102E1000FEE7000070B50D4E0D4CA41BA41000255C
:102E2000A54209D10B4E0C4C00F020F8A41BA410B5
:102E30000025A54205D170BD56F8253098470135CB
:102E4000EEE756F8253098470135F2E7A02F000845
:102E5000A02F0008A02F0008A42F0008024403465A
:102E6000934200D1704703F8011BF9E7F8B500BFA2
:102E7000F8BC08BC9E467047F8B500BFF8BC08BC5B
:042E80009E467047B3
:102E84007B2F0008A92700080000000000000000B4
:102E940080000000702F000881270008FDFF00005B
:102EA4000000000080000000652F0008B327000820
:102EB400FDFF000000000000800000005D2F0008FE
:102EC400BD270008FDFF0000000000008000000096
:102ED400512F000895270008FDFF000000000000A6
:102EE40080000000452F00089F270008FDFF000018
:102EF4000000000080000000392F0008752700083A
:102F0400FDFF000000000000800000000203040533
:102F1400060708090A0B0C0D0E0F1010010203041A
:102F240005060708090A0B0C0D0E0F100104080210
:102F340049444C45006261636B75705461736B3135
:102F4400006261636B75705461736B3000636F6E04
:102F540074726F6C5461736B004144435461736BBE
:102F6400006D6F746F72315461736B006D6F746FA9
:102F740072305461736B0064656661756C7454617E
:102F8400736B00000000000000000001020304064F
:0C2F94000708090000000001020304000F
:042FA000C50100085F
:042FA400A10100087F
:102FA80001000000AAAAAAAA0500000000127A00DF
:0400000508002DC101
:00000001FF
